{
  "_format": "hh-sol-artifact-1",
  "contractName": "RockPaperScissors",
  "sourceName": "contracts/RockPaperScissors.sol",
  "abi": [
    {
      "inputs": [],
      "stateMutability": "nonpayable",
      "type": "constructor"
    },
    {
      "inputs": [],
      "name": "HandlesAlreadySavedForRequestID",
      "type": "error"
    },
    {
      "inputs": [],
      "name": "InvalidKMSSignatures",
      "type": "error"
    },
    {
      "inputs": [],
      "name": "NoHandleFoundForRequestID",
      "type": "error"
    },
    {
      "anonymous": false,
      "inputs": [
        {
          "indexed": true,
          "internalType": "uint256",
          "name": "requestID",
          "type": "uint256"
        }
      ],
      "name": "DecryptionFulfilled",
      "type": "event"
    },
    {
      "anonymous": false,
      "inputs": [
        {
          "indexed": true,
          "internalType": "uint256",
          "name": "gameId",
          "type": "uint256"
        },
        {
          "indexed": true,
          "internalType": "uint256",
          "name": "requestId",
          "type": "uint256"
        }
      ],
      "name": "DecryptionRequested",
      "type": "event"
    },
    {
      "anonymous": false,
      "inputs": [
        {
          "indexed": true,
          "internalType": "uint256",
          "name": "gameId",
          "type": "uint256"
        },
        {
          "indexed": true,
          "internalType": "address",
          "name": "player1",
          "type": "address"
        }
      ],
      "name": "GameCreated",
      "type": "event"
    },
    {
      "anonymous": false,
      "inputs": [
        {
          "indexed": true,
          "internalType": "uint256",
          "name": "gameId",
          "type": "uint256"
        },
        {
          "indexed": false,
          "internalType": "address",
          "name": "winner",
          "type": "address"
        },
        {
          "indexed": false,
          "internalType": "bool",
          "name": "isDraw",
          "type": "bool"
        }
      ],
      "name": "GameFinished",
      "type": "event"
    },
    {
      "anonymous": false,
      "inputs": [
        {
          "indexed": true,
          "internalType": "uint256",
          "name": "gameId",
          "type": "uint256"
        },
        {
          "indexed": true,
          "internalType": "address",
          "name": "player",
          "type": "address"
        },
        {
          "indexed": false,
          "internalType": "bool",
          "name": "isPlayer1",
          "type": "bool"
        }
      ],
      "name": "MoveMade",
      "type": "event"
    },
    {
      "anonymous": false,
      "inputs": [
        {
          "indexed": true,
          "internalType": "uint256",
          "name": "gameId",
          "type": "uint256"
        },
        {
          "indexed": true,
          "internalType": "address",
          "name": "player2",
          "type": "address"
        }
      ],
      "name": "PlayerJoined",
      "type": "event"
    },
    {
      "inputs": [],
      "name": "createGame",
      "outputs": [
        {
          "internalType": "uint256",
          "name": "",
          "type": "uint256"
        }
      ],
      "stateMutability": "nonpayable",
      "type": "function"
    },
    {
      "inputs": [],
      "name": "gameCounter",
      "outputs": [
        {
          "internalType": "uint256",
          "name": "",
          "type": "uint256"
        }
      ],
      "stateMutability": "view",
      "type": "function"
    },
    {
      "inputs": [
        {
          "internalType": "uint256",
          "name": "requestId",
          "type": "uint256"
        },
        {
          "internalType": "bytes",
          "name": "cleartexts",
          "type": "bytes"
        },
        {
          "internalType": "bytes",
          "name": "decryptionProof",
          "type": "bytes"
        }
      ],
      "name": "gameResolutionCallback",
      "outputs": [],
      "stateMutability": "nonpayable",
      "type": "function"
    },
    {
      "inputs": [
        {
          "internalType": "uint256",
          "name": "",
          "type": "uint256"
        }
      ],
      "name": "games",
      "outputs": [
        {
          "internalType": "address",
          "name": "player1",
          "type": "address"
        },
        {
          "internalType": "address",
          "name": "player2",
          "type": "address"
        },
        {
          "internalType": "euint8",
          "name": "encryptedMove1",
          "type": "bytes32"
        },
        {
          "internalType": "euint8",
          "name": "encryptedMove2",
          "type": "bytes32"
        },
        {
          "internalType": "bool",
          "name": "player1Committed",
          "type": "bool"
        },
        {
          "internalType": "bool",
          "name": "player2Committed",
          "type": "bool"
        },
        {
          "internalType": "enum RockPaperScissors.GameStatus",
          "name": "status",
          "type": "uint8"
        },
        {
          "internalType": "uint256",
          "name": "createdAt",
          "type": "uint256"
        },
        {
          "internalType": "uint256",
          "name": "requestId",
          "type": "uint256"
        },
        {
          "internalType": "bool",
          "name": "isDraw",
          "type": "bool"
        },
        {
          "internalType": "bool",
          "name": "player1Wins",
          "type": "bool"
        },
        {
          "internalType": "bool",
          "name": "resultsDecrypted",
          "type": "bool"
        }
      ],
      "stateMutability": "view",
      "type": "function"
    },
    {
      "inputs": [
        {
          "internalType": "uint256",
          "name": "gameId",
          "type": "uint256"
        }
      ],
      "name": "getGame",
      "outputs": [
        {
          "internalType": "address",
          "name": "player1",
          "type": "address"
        },
        {
          "internalType": "address",
          "name": "player2",
          "type": "address"
        },
        {
          "internalType": "enum RockPaperScissors.GameStatus",
          "name": "status",
          "type": "uint8"
        },
        {
          "internalType": "bool",
          "name": "player1Committed",
          "type": "bool"
        },
        {
          "internalType": "bool",
          "name": "player2Committed",
          "type": "bool"
        },
        {
          "internalType": "bool",
          "name": "resultsDecrypted",
          "type": "bool"
        }
      ],
      "stateMutability": "view",
      "type": "function"
    },
    {
      "inputs": [],
      "name": "getGameCounter",
      "outputs": [
        {
          "internalType": "uint256",
          "name": "",
          "type": "uint256"
        }
      ],
      "stateMutability": "view",
      "type": "function"
    },
    {
      "inputs": [
        {
          "internalType": "uint256",
          "name": "gameId",
          "type": "uint256"
        }
      ],
      "name": "getGameRequestId",
      "outputs": [
        {
          "internalType": "uint256",
          "name": "",
          "type": "uint256"
        }
      ],
      "stateMutability": "view",
      "type": "function"
    },
    {
      "inputs": [
        {
          "internalType": "uint256",
          "name": "gameId",
          "type": "uint256"
        }
      ],
      "name": "getGameResults",
      "outputs": [
        {
          "internalType": "bool",
          "name": "isDraw",
          "type": "bool"
        },
        {
          "internalType": "bool",
          "name": "player1Wins",
          "type": "bool"
        },
        {
          "internalType": "address",
          "name": "winner",
          "type": "address"
        }
      ],
      "stateMutability": "view",
      "type": "function"
    },
    {
      "inputs": [
        {
          "internalType": "uint256",
          "name": "gameId",
          "type": "uint256"
        }
      ],
      "name": "isGameReady",
      "outputs": [
        {
          "internalType": "bool",
          "name": "",
          "type": "bool"
        }
      ],
      "stateMutability": "view",
      "type": "function"
    },
    {
      "inputs": [
        {
          "internalType": "uint256",
          "name": "gameId",
          "type": "uint256"
        }
      ],
      "name": "joinGame",
      "outputs": [],
      "stateMutability": "nonpayable",
      "type": "function"
    },
    {
      "inputs": [
        {
          "internalType": "uint256",
          "name": "gameId",
          "type": "uint256"
        },
        {
          "internalType": "externalEuint8",
          "name": "encryptedMove",
          "type": "bytes32"
        },
        {
          "internalType": "bytes",
          "name": "inputProof",
          "type": "bytes"
        }
      ],
      "name": "makeMove",
      "outputs": [],
      "stateMutability": "nonpayable",
      "type": "function"
    },
    {
      "inputs": [],
      "name": "protocolId",
      "outputs": [
        {
          "internalType": "uint256",
          "name": "",
          "type": "uint256"
        }
      ],
      "stateMutability": "pure",
      "type": "function"
    },
    {
      "inputs": [
        {
          "internalType": "uint256",
          "name": "gameId",
          "type": "uint256"
        }
      ],
      "name": "requestGameResolution",
      "outputs": [],
      "stateMutability": "nonpayable",
      "type": "function"
    },
    {
      "inputs": [
        {
          "internalType": "uint256",
          "name": "",
          "type": "uint256"
        }
      ],
      "name": "requestIdToGameId",
      "outputs": [
        {
          "internalType": "uint256",
          "name": "",
          "type": "uint256"
        }
      ],
      "stateMutability": "view",
      "type": "function"
    }
  ],
  "bytecode": "0x608060405234610154575f6060610014610158565b828152826020820152826040820152015261002d610158565b606073687820221192c5b662b25367f70076a37bc79b6c9182815273848b0066793bcc60346da1f49049357399b8d59580602083015273a02cda4ca3a71d7c46997716f4283aa851c2881291826040820152731364cbbf2cdf5032c47d8226a6f6fbd2afcdacac938491015260018060a01b0319937f9e7b61f58c47dc699ac88507c4f5bb9f121c03808c5676a8078fe583e464970090858254161790557f9e7b61f58c47dc699ac88507c4f5bb9f121c03808c5676a8078fe583e464970190848254161790557f9e7b61f58c47dc699ac88507c4f5bb9f121c03808c5676a8078fe583e464970290838254161790557f9e7b61f58c47dc699ac88507c4f5bb9f121c03808c5676a8078fe583e4649703918254161790556040516119c7908161018c8239f35b5f80fd5b60405190608082016001600160401b0381118382101761017757604052565b634e487b7160e01b5f52604160045260245ffdfe6080806040526004361015610012575f80fd5b5f905f3560e01c908163117a5b901461135d575080631ef6c58a14610e895780631fa072db14610e5f5780632b08b6de14610ddc5780632e0be39a146108005780637255d72914610bb15780638de506851461081e578063944ccc371461080057806395e0ae2c146107d4578063a2f77bcc14610743578063afba87401461035e578063da1f12ab14610341578063dcef63eb146102535763efaa55a0146100b8575f80fd5b346102505760203660031901126102505760043580825260208290526040822080546001600160a01b03908116916100f1831515611538565b6001810192835492831661020b5733146101c6576004019182549060ff8260101c1660058110156101b25761016d57620100009233906bffffffffffffffffffffffff60a01b1617905562ff0000191617905533907f87969bc7faf902221a147b95ceba76e011c5efb0339a0a8ee7a2bb82d9cfbbd68380a380f35b60405162461bcd60e51b815260206004820152601960248201527f47616d65206e6f7420696e2077616974696e67207374617465000000000000006044820152606490fd5b634e487b7160e01b87526021600452602487fd5b60405162461bcd60e51b815260206004820152601c60248201527f43616e6e6f7420706c617920616761696e737420796f757273656c66000000006044820152606490fd5b60405162461bcd60e51b815260206004820152601c60248201527f47616d6520616c7265616479206861732074776f20706c6179657273000000006044820152606490fd5b80fd5b503461025057602036600319011261025057600435815260208190526040812080546001600160a01b03908116929161028d841515611538565b600781015460ff8160101c16156102fc5760609483859360ff84161596876102d1575b5050505060ff906040519415855260081c1615156020840152166040820152f35b60ff94955050838560081c165f146102f05750505b9190835f806102b0565b600101541690506102e6565b60405162461bcd60e51b815260206004820152601960248201527f526573756c7473206e6f742079657420646563727970746564000000000000006044820152606490fd5b503461025057806003193601126102505760206040516127118152f35b50346102505760603660031901126102505767ffffffffffffffff60243581811161073f576103919036906004016114ac565b9060443590811161073f576103aa9036906004016114ac565b9060043583526001806020526040842054928315801590610726575b156106ea5783855284602052604085209060043586527f878245876662ba28a480c5ea71726db859fb50222b0a3d7cbbc21cfa336faf01806020526040872054156106d857600435875260205260408620926040519081948591602082549485815201918a5260208a20938a5b8181106106c05750505061044992500384611444565b83519081602001806020116106ac576040830110610698576105059160209161049a604080518094828b610485815180928b808801910161192b565b83019101878201520385810185520183611444565b6104f38960018060a01b0397610517897f9e7b61f58c47dc699ac88507c4f5bb9f121c03808c5676a8078fe583e4649703541694604051988997889687956378542ead60e01b87526060600488015260648701906118f8565b8581036003190160248701529061194c565b8381036003190160448501529061194c565b03925af190811561068d57869161064f575b501561063d576004357f1af0453083661051f6e56e5c070792320652e612154bf9af8637bb1e7655b99d8680a2604083805181010312610639578260409261059f8461059860207f3c407d684f8e26ac47a42a0e982bc16fe05e96ce344f63a5736ec6c2690d7780980161157a565b930161157a565b926105d460078201946105be85879060ff801983541691151516179055565b855461ff00191690151560081b61ff0016178555565b83549362ff000019620100008187161780925562040000600484019182541617905560ff89951615610614575b505083519216825215156020820152a280f35b82945060ff9060081c165f1461062f5754165b915f80610601565b6001015416610627565b8480fd5b60405163cf6c44e960e01b8152600490fd5b90506020813d602011610685575b8161066a60209383611444565b810103126106815761067b9061157a565b5f610529565b8580fd5b3d915061065d565b6040513d88823e3d90fd5b634e487b7160e01b87526011600452602487fd5b634e487b7160e01b88526011600452602488fd5b85548452948201948894506020909301928201610433565b60405163d66ca67560e01b8152600490fd5b60405162461bcd60e51b815260206004820152601460248201527314995c5d595cdd081251081b9bdd08199bdd5b9960621b6044820152606490fd5b50848052846020526004356006604087200154146103c6565b8280fd5b5034610250576020366003190112610250576004358152602081905260409020805460c0916001600160a01b039182169160ff90610782841515611538565b60018301541691816007600483015492015460101c169260405194855260208501526107b660408501838360101c16611423565b8181161515606085015260081c1615156080830152151560a0820152f35b503461025057602036600319011261025057600660406020926004358152808452200154604051908152f35b50346102505780600319360112610250576020600254604051908152f35b50346102505760603660031901126102505760443567ffffffffffffffff600435602482841161063957366023850112156106395783600401359283116106395736818486010111610639578185526020928584526040862090600482019560ff875460101c166005811015610b9e57600103610b5a5790856109096108c78a959460018060a01b03948587541633148015610b4b575b6108be906114ca565b88369201611466565b835f8051602061197283398151915254169060405196878094819363196d0b9b60e01b83528b356004840152338c84015260806044840152608483019061194c565b6002606483015203925af1928315610b40578893610b0d575b5087817f9e7b61f58c47dc699ac88507c4f5bb9f121c03808c5676a8078fe583e46497005416803b15610b0957604051630f8e573b60e21b8152600481018690523360248201529082908290604490829084905af18015610afe57610ae6575b505061098d83611742565b5081541633145f14610a565785549260ff8416610a1357506002015560ff19166001908117845560405190815233927ec61e485e1d71e85a7fd0ed66df00e8ae91c7cb6c64f9ed157728bb2088246c91a35b805460ff811680610a06575b6109f3578280f35b62ff00001916620200001790555f808280f35b5060ff8160081c166109eb565b85601a6064926040519262461bcd60e51b845260048401528201527f506c61796572203120616c726561647920636f6d6d69747465640000000000006044820152fd5b85549260ff8460081c16610aa357506003015561ff00191661010017835560405184815233927ec61e485e1d71e85a7fd0ed66df00e8ae91c7cb6c64f9ed157728bb2088246c91a36109df565b85601a6064926040519262461bcd60e51b845260048401528201527f506c61796572203220616c726561647920636f6d6d69747465640000000000006044820152fd5b610aef90611430565b610afa57875f610982565b8780fd5b6040513d84823e3d90fd5b5080fd5b9092508581813d8311610b39575b610b258183611444565b81010312610b355751915f610922565b5f80fd5b503d610b1b565b6040513d8a823e3d90fd5b506001870154861633146108b5565b60405162461bcd60e51b8152600481018790526018818601527f47616d65206e6f7420616363657074696e67206d6f76657300000000000000006044820152606490fd5b634e487b7160e01b895260216004528489fd5b503461025057806003193601126102505760025490610bcf82611516565b600255610bda6117b3565b91610be36117b3565b604051610180810181811067ffffffffffffffff821117610dc857604052338152602081018481526040820195865260608201928352608082019085825260a083019286845260c081019387855260e08201944286526101008301918983526101208401978a895261014085019b8b8d526101608601968c88528b8d528c60205260408d2096600160a01b6001900380915116906bffffffffffffffffffffffff60a01b91828a541617895560018901925116908254161790555160028601555160038501556004840195511515610cc790879060ff801983541691151516179055565b51855461ff00191690151560081b61ff001617855551946005861015610db4576007610d489360209b93610d319388549862ff000019998a62ff0000809d60101b1691161790555160058301555160068201550196511515879060ff801983541691151516179055565b51855461ff00191690151560081b61ff0016178555565b5115159183549260101b169116179055808252818352610d6e6002604084200154611742565b50808252818352610d856003604084200154611742565b5060405191817fc3e0f84839dc888c892a013d10c8f9d6dc05a21a879d0ce468ca558013e9121c339280a38152f35b634e487b7160e01b89526021600452602489fd5b634e487b7160e01b5f52604160045260245ffd5b503461025057602036600319011261025057600435815280602052600460408220015460ff81169081610e50575b81610e1d575b6020826040519015158152f35b60ff915060101c16906005821015610e3c57506002602091145f610e10565b634e487b7160e01b81526021600452602490fd5b905060ff8160081c1690610e0a565b50346102505760203660031901126102505760406020916004358152600183522054604051908152f35b5034610b3557602080600319360112610b3557600435805f525f825260405f20916004830160ff815460101c166005811015611349576002036113045783546001600160a01b0394908516331480156112f5575b610ee6906114ca565b600281015494610f796003830154610f74610f01828a611587565b98610f6e610f30610f19610f136117b3565b84611587565b610f2a610f24611806565b87611587565b9061163a565b93610f2a610f65610f56610f45610f24611859565b610f2a610f506117b3565b86611587565b94610f5f611806565b90611587565b91610f5f611859565b926116be565b6116be565b7f9e7b61f58c47dc699ac88507c4f5bb9f121c03808c5676a8078fe583e46497009682885416803b15610b3557604051630f8e573b60e21b80825260048201849052336024830152915f908290604490829084905af180156112ea576112d7575b508990848a541690813b1561073f57604051908152600481018590523360248201529082908290604490829084905af18015610afe576112bf575b505060405167ffffffffffffffff916060820183811183821017610dc857604052600282528782019060403683378251156112ab578152815193600194600110156112ab5760408301528a7f878245876662ba28a480c5ea71726db859fb50222b0a3d7cbbc21cfa336faf00958087549c5416803b1561073f57826040518092637d6e912360e11b82528d60048301528183816110b5602482018c6118f8565b03925af19081156112a057839161128c575b50507f9e7b61f58c47dc699ac88507c4f5bb9f121c03808c5676a8078fe583e46497025416803b15610b0957818c604051928391633263b83b60e01b8352600483015260606024830152818381611121606482018b6118f8565b6302beea1d60e61b604483015203925af18015610afe57611274575b508a90527f878245876662ba28a480c5ea71726db859fb50222b0a3d7cbbc21cfa336faf0180895260408c2054611262578a8c52885260408b20915192831161124e5768010000000000000000831161124e578154838355808410611227575b509189949297969593918b52868b20978b985b828a1061121157505050506001955090816111cd60069354611516565b905501556203000062ff000019825416179055838552528060408420557f81bca54e6c48c44ec959a5581796be73005cbde51156a29bae607f52e9baa16c8380a380f35b81518a820155988301988b9650908801906111b0565b84848a8e8681522092830192015b82811061124357505061119d565b8d8155018590611235565b634e487b7160e01b8b52604160045260248bfd5b604051633f06d22b60e01b8152600490fd5b61127d90611430565b611288578a5f61113d565b8a80fd5b61129590611430565b610b0957815f6110c7565b6040513d85823e3d90fd5b634e487b7160e01b5f52603260045260245ffd5b6112c890611430565b6112d357885f611015565b8880fd5b6112e2919a50611430565b5f985f610fda565b6040513d5f823e3d90fd5b50600181015485163314610edd565b60405162461bcd60e51b815260048101839052601d60248201527f47616d65206e6f7420726561647920666f72207265736f6c7574696f6e0000006044820152606490fd5b634e487b7160e01b5f52602160045260245ffd5b34610b35576020366003190112610b3557610180906004355f525f60205260405f2060018060a01b038082541690600183015416916002810154926113f1600383015460048401549060ff9660058601549460076006880154970154978a5260208a01526040890152606088015285811615156080880152858160081c16151560a08801528560c088019160101c16611423565b60e08501526101008401528181161515610120840152818160081c16151561014084015260101c161515610160820152f35b9060058210156113495752565b67ffffffffffffffff8111610dc857604052565b90601f8019910116810190811067ffffffffffffffff821117610dc857604052565b92919267ffffffffffffffff8211610dc85760405191611490601f8201601f191660200184611444565b829481845281830111610b35578281602093845f960137010152565b9080601f83011215610b35578160206114c793359101611466565b90565b156114d157565b60405162461bcd60e51b815260206004820152601960248201527f4e6f74206120706c6179657220696e20746869732067616d65000000000000006044820152606490fd5b5f1981146115245760010190565b634e487b7160e01b5f52601160045260245ffd5b1561153f57565b60405162461bcd60e51b815260206004820152601360248201527211d85b5948191bd95cc81b9bdd08195e1a5cdd606a1b6044820152606490fd5b51908115158203610b3557565b90811561162a575b8015611618575b602090606460018060a01b035f805160206119728339815191525416935f604051958694859363f77f3f1d60e01b8552600485015260248401528160448401525af19081156112ea575f916115e9575090565b90506020813d602011611610575b8161160460209383611444565b81010312610b35575190565b3d91506115f7565b5060206116236117b3565b9050611596565b90506116346117b3565b9061158f565b9081156116ae575b801561169c575b602090606460018060a01b035f805160206119728339815191525416935f604051958694859363d99882d560e01b8552600485015260248401528160448401525af19081156112ea575f916115e9575090565b5060206116a76118ac565b9050611649565b90506116b86118ac565b90611642565b908115611732575b8015611720575b602090606460018060a01b035f805160206119728339815191525416935f60405195869485936363a2db2960e01b8552600485015260248401528160448401525af19081156112ea575f916115e9575090565b50602061172b6118ac565b90506116cd565b905061173c6118ac565b906116c6565b7f9e7b61f58c47dc699ac88507c4f5bb9f121c03808c5676a8078fe583e4649700546001600160a01b0316803b15610b3557604051635ca4b5b160e11b815260048101839052306024820152905f908290604490829084905af180156112ea576117aa575090565b6114c790611430565b5f8051602061197283398151915254604051639cd07acb60e01b81525f60048201819052600260248301529091602091839160449183916001600160a01b03165af19081156112ea575f916115e9575090565b5f8051602061197283398151915254604051639cd07acb60e01b8152600260048201819052602482015290602090829060449082905f906001600160a01b03165af19081156112ea575f916115e9575090565b5f8051602061197283398151915254604051639cd07acb60e01b8152600160048201526002602482015290602090829060449082905f906001600160a01b03165af19081156112ea575f916115e9575090565b5f602060018060a01b035f805160206119728339815191525416604460405180948193639cd07acb60e01b83528160048401528160248401525af19081156112ea575f916115e9575090565b9081518082526020808093019301915f5b828110611917575050505090565b835185529381019392810192600101611909565b5f5b83811061193c5750505f910152565b818101518382015260200161192d565b906020916119658151809281855285808601910161192b565b601f01601f191601019056fe9e7b61f58c47dc699ac88507c4f5bb9f121c03808c5676a8078fe583e4649701a2646970667358221220d97c611978a6c76904640087f3586007c697af81ccb82703e6f29e04bb61b5be64736f6c63430008180033",
  "linkReferences": {},
  "deployedLinkReferences": {}
}