{
  "_format": "hh-sol-artifact-1",
  "contractName": "RockPaperScissors",
  "sourceName": "contracts/RockPaperScissors.sol",
  "abi": [
    {
      "anonymous": false,
      "inputs": [
        {
          "indexed": true,
          "internalType": "uint256",
          "name": "gameId",
          "type": "uint256"
        },
        {
          "indexed": true,
          "internalType": "address",
          "name": "player1",
          "type": "address"
        }
      ],
      "name": "GameCreated",
      "type": "event"
    },
    {
      "anonymous": false,
      "inputs": [
        {
          "indexed": true,
          "internalType": "uint256",
          "name": "gameId",
          "type": "uint256"
        },
        {
          "indexed": false,
          "internalType": "address",
          "name": "winner",
          "type": "address"
        },
        {
          "indexed": false,
          "internalType": "bool",
          "name": "isDraw",
          "type": "bool"
        }
      ],
      "name": "GameFinished",
      "type": "event"
    },
    {
      "anonymous": false,
      "inputs": [
        {
          "indexed": true,
          "internalType": "uint256",
          "name": "gameId",
          "type": "uint256"
        },
        {
          "indexed": true,
          "internalType": "address",
          "name": "player",
          "type": "address"
        },
        {
          "indexed": false,
          "internalType": "bool",
          "name": "isPlayer1",
          "type": "bool"
        }
      ],
      "name": "MoveMade",
      "type": "event"
    },
    {
      "inputs": [],
      "name": "createGame",
      "outputs": [
        {
          "internalType": "uint256",
          "name": "",
          "type": "uint256"
        }
      ],
      "stateMutability": "nonpayable",
      "type": "function"
    },
    {
      "inputs": [
        {
          "internalType": "uint256",
          "name": "gameId",
          "type": "uint256"
        }
      ],
      "name": "determineWinner",
      "outputs": [
        {
          "internalType": "address",
          "name": "",
          "type": "address"
        }
      ],
      "stateMutability": "nonpayable",
      "type": "function"
    },
    {
      "inputs": [],
      "name": "gameCounter",
      "outputs": [
        {
          "internalType": "uint256",
          "name": "",
          "type": "uint256"
        }
      ],
      "stateMutability": "view",
      "type": "function"
    },
    {
      "inputs": [
        {
          "internalType": "uint256",
          "name": "",
          "type": "uint256"
        }
      ],
      "name": "games",
      "outputs": [
        {
          "internalType": "address",
          "name": "player1",
          "type": "address"
        },
        {
          "internalType": "address",
          "name": "player2",
          "type": "address"
        },
        {
          "internalType": "euint8",
          "name": "encryptedMove1",
          "type": "bytes32"
        },
        {
          "internalType": "euint8",
          "name": "encryptedMove2",
          "type": "bytes32"
        },
        {
          "internalType": "bool",
          "name": "player1Committed",
          "type": "bool"
        },
        {
          "internalType": "bool",
          "name": "player2Committed",
          "type": "bool"
        },
        {
          "internalType": "bool",
          "name": "gameFinished",
          "type": "bool"
        },
        {
          "internalType": "uint256",
          "name": "createdAt",
          "type": "uint256"
        },
        {
          "components": [
            {
              "internalType": "ebool",
              "name": "isDraw",
              "type": "bytes32"
            },
            {
              "internalType": "ebool",
              "name": "player1Wins",
              "type": "bytes32"
            },
            {
              "internalType": "bool",
              "name": "resultsComputed",
              "type": "bool"
            }
          ],
          "internalType": "struct RockPaperScissors.EncryptedResult",
          "name": "encryptedResults",
          "type": "tuple"
        }
      ],
      "stateMutability": "view",
      "type": "function"
    },
    {
      "inputs": [
        {
          "internalType": "uint256",
          "name": "gameId",
          "type": "uint256"
        }
      ],
      "name": "getEncryptedResult",
      "outputs": [
        {
          "internalType": "ebool",
          "name": "",
          "type": "bytes32"
        },
        {
          "internalType": "ebool",
          "name": "",
          "type": "bytes32"
        }
      ],
      "stateMutability": "nonpayable",
      "type": "function"
    },
    {
      "inputs": [
        {
          "internalType": "uint256",
          "name": "gameId",
          "type": "uint256"
        }
      ],
      "name": "getMyMove",
      "outputs": [
        {
          "internalType": "euint8",
          "name": "",
          "type": "bytes32"
        }
      ],
      "stateMutability": "nonpayable",
      "type": "function"
    },
    {
      "inputs": [
        {
          "internalType": "uint256",
          "name": "gameId",
          "type": "uint256"
        }
      ],
      "name": "isGameReady",
      "outputs": [
        {
          "internalType": "bool",
          "name": "",
          "type": "bool"
        }
      ],
      "stateMutability": "view",
      "type": "function"
    },
    {
      "inputs": [
        {
          "internalType": "uint256",
          "name": "gameId",
          "type": "uint256"
        }
      ],
      "name": "joinGame",
      "outputs": [],
      "stateMutability": "nonpayable",
      "type": "function"
    },
    {
      "inputs": [
        {
          "internalType": "uint256",
          "name": "gameId",
          "type": "uint256"
        },
        {
          "internalType": "externalEuint8",
          "name": "encryptedMove",
          "type": "bytes32"
        },
        {
          "internalType": "bytes",
          "name": "inputProof",
          "type": "bytes"
        }
      ],
      "name": "makeMove",
      "outputs": [],
      "stateMutability": "nonpayable",
      "type": "function"
    },
    {
      "inputs": [],
      "name": "protocolId",
      "outputs": [
        {
          "internalType": "uint256",
          "name": "",
          "type": "uint256"
        }
      ],
      "stateMutability": "pure",
      "type": "function"
    }
  ],
  "bytecode": "0x608060405234801561000f575f80fd5b5061018a6100ae604080516080810182525f808252602082018190529181018290526060810191909152506040805160808101825273687820221192c5b662b25367f70076a37bc79b6c815273848b0066793bcc60346da1f49049357399b8d595602082015273a02cda4ca3a71d7c46997716f4283aa851c2881291810191909152731364cbbf2cdf5032c47d8226a6f6fbd2afcdacac606082015290565b80517f9e7b61f58c47dc699ac88507c4f5bb9f121c03808c5676a8078fe583e464970080546001600160a01b03199081166001600160a01b039384161790915560208301517f9e7b61f58c47dc699ac88507c4f5bb9f121c03808c5676a8078fe583e46497018054831691841691909117905560408301517f9e7b61f58c47dc699ac88507c4f5bb9f121c03808c5676a8078fe583e46497028054831691841691909117905560608301517f9e7b61f58c47dc699ac88507c4f5bb9f121c03808c5676a8078fe583e46497038054909216921691909117905550565b61116a806101975f395ff3fe608060405234801561000f575f80fd5b506004361061009b575f3560e01c806395fde9d21161006357806395fde9d2146101fe578063c1715bff14610226578063da1f12ab14610239578063efaa55a014610241578063efe4333814610254575f80fd5b8063117a5b901461009f5780632b08b6de146101a75780632e0be39a146101ca5780637255d729146101e15780638de50685146101e9575b5f80fd5b6101346100ad366004610f64565b5f602081815291815260409081902080546001820154600283015460038401546004850154600586015487516060810189526006880154815260078801549981019990995260089096015460ff9081161515978901979097526001600160a01b03948516979490931695919490938284169361010081048416936201000090910416919089565b604080516001600160a01b039a8b168152999098166020808b0191909152898901979097526060890195909552921515608088015290151560a0870152151560c086015260e085015280516101008501529081015161012084015201511515610140820152610160015b60405180910390f35b6101ba6101b5366004610f64565b61027f565b604051901515815260200161019e565b6101d360015481565b60405190815260200161019e565b6101d36102b0565b6101fc6101f7366004610f7b565b610459565b005b61021161020c366004610f64565b61070e565b6040805192835260208301919091520161019e565b6101d3610234366004610f64565b6107a7565b6127116101d3565b6101fc61024f366004610f64565b610863565b610267610262366004610f64565b610989565b6040516001600160a01b03909116815260200161019e565b5f818152602081905260408120600481015460ff1680156102a957506004810154610100900460ff165b9392505050565b600180545f91829190826102c383610ff4565b919050559050604051806101200160405280336001600160a01b031681526020015f6001600160a01b031681526020016102fc5f610b11565b815260200161030a5f610b11565b81526020015f151581526020015f151581526020015f1515815260200142815260200160405180606001604052806103415f610b26565b815260200161034f5f610b26565b81525f6020918201819052919092528381528082526040808220845181546001600160a01b03199081166001600160a01b0392831617835586860151600184018054909216921691909117905584820151600282015560608501516003820155608085015160048201805460a088015160c089015161ffff1990921693151561ff0019169390931761010093151584021762ff00001916620100009115159190910217905560e086015160058301559094015180516006860155928301516007850155918201516008909301805460ff19169315159390931790925551339183917fc3e0f84839dc888c892a013d10c8f9d6dc05a21a879d0ce468ca558013e9121c9190a3919050565b5f848152602081905260409020600481015462010000900460ff16156104be5760405162461bcd60e51b815260206004820152601560248201527411d85b5948185b1c9958591e48199a5b9a5cda1959605a1b60448201526064015b60405180910390fd5b80546001600160a01b03163314806104e2575060018101546001600160a01b031633145b61052a5760405162461bcd60e51b81526020600482015260196024820152784e6f74206120706c6179657220696e20746869732067616d6560381b60448201526064016104b5565b5f61056a8585858080601f0160208091040260200160405190810160405280939291908181526020018383808284375f92019190915250610b4192505050565b82549091506001600160a01b0316330361062757600482015460ff16156105d35760405162461bcd60e51b815260206004820152601a60248201527f506c61796572203120616c726561647920636f6d6d697474656400000000000060448201526064016104b5565b6002820181905560048201805460ff19166001908117909155604051908152339087907ec61e485e1d71e85a7fd0ed66df00e8ae91c7cb6c64f9ed157728bb2088246c9060200160405180910390a36106d0565b6004820154610100900460ff16156106815760405162461bcd60e51b815260206004820152601a60248201527f506c61796572203220616c726561647920636f6d6d697474656400000000000060448201526064016104b5565b6003820181905560048201805461ff0019166101001790556040515f8152339087907ec61e485e1d71e85a7fd0ed66df00e8ae91c7cb6c64f9ed157728bb2088246c9060200160405180910390a35b600482015460ff1680156106ed57506004820154610100900460ff165b156107065760048201805462ff00001916620100001790555b505050505050565b5f818152602081905260408120600881015482919060ff166107725760405162461bcd60e51b815260206004820152601860248201527f526573756c7473206e6f7420636f6d707574656420796574000000000000000060448201526064016104b5565b60068101546107819033610b4e565b5060078101546107919033610b4e565b5060068101546007909101549094909350915050565b5f81815260208190526040812080546001600160a01b03163314806107d8575060018101546001600160a01b031633145b6108205760405162461bcd60e51b81526020600482015260196024820152784e6f74206120706c6179657220696e20746869732067616d6560381b60448201526064016104b5565b80546001600160a01b0316330361084a5761083f816002015433610b4e565b506002015492915050565b610858816003015433610b4e565b506003015492915050565b5f81815260208190526040902080546001600160a01b03166108bd5760405162461bcd60e51b815260206004820152601360248201527211d85b5948191bd95cc81b9bdd08195e1a5cdd606a1b60448201526064016104b5565b60018101546001600160a01b0316156109185760405162461bcd60e51b815260206004820152601c60248201527f47616d6520616c7265616479206861732074776f20706c61796572730000000060448201526064016104b5565b8054336001600160a01b03909116036109735760405162461bcd60e51b815260206004820152601c60248201527f43616e6e6f7420706c617920616761696e737420796f757273656c660000000060448201526064016104b5565b60010180546001600160a01b0319163317905550565b5f818152602081905260408120600481015462010000900460ff166109e85760405162461bcd60e51b815260206004820152601560248201527411d85b59481b9bdd08199a5b9a5cda1959081e595d605a1b60448201526064016104b5565b600281015460038201545f6109fd8383610b60565b90505f610a1284610a0d5f610b11565b610b60565b90505f610a2384610a0d6002610b11565b90505f610a308383610b8e565b90505f610a4187610a0d6001610b11565b90505f610a5187610a0d5f610b11565b90505f610a5e8383610b8e565b90505f610a6f8a610a0d6002610b11565b90505f610a808a610a0d6001610b11565b90505f610a8d8383610b8e565b90505f610aa3610a9d8987610bbc565b83610bbc565b905060405180606001604052808c8152602001828152602001600115158152508e6006015f820151815f0155602082015181600101556040820151816002015f6101000a81548160ff0219169083151502179055509050505f9e505050505050505050505050505050919050565b5f610b208260ff166002610bea565b92915050565b5f610b2082610b35575f610b38565b60015b60ff165f610bea565b5f6102a983836002610c81565b5f610b598383610d7b565b5090919050565b5f82610b7257610b6f5f610b11565b92505b81610b8357610b805f610b11565b91505b6102a983835f610df1565b5f82610ba057610b9d5f610b26565b92505b81610bb157610bae5f610b26565b91505b6102a983835f610e9e565b5f82610bce57610bcb5f610b26565b92505b81610bdf57610bdc5f610b26565b91505b6102a983835f610f01565b5f805160206110f583398151915254604051639cd07acb60e01b81525f915f80516020611115833981519152916001600160a01b0390911690639cd07acb90610c399087908790600401611038565b6020604051808303815f875af1158015610c55573d5f803e3d5ffd5b505050506040513d601f19601f82011682018060405250810190610c79919061104c565b949350505050565b5f805160206110f58339815191525460405163196d0b9b60e01b81525f915f80516020611115833981519152916001600160a01b039091169063196d0b9b90610cd4908890339089908990600401611063565b6020604051808303815f875af1158015610cf0573d5f803e3d5ffd5b505050506040513d601f19601f82011682018060405250810190610d14919061104c565b8154604051630f8e573b60e21b8152600481018390523360248201529193506001600160a01b031690633e395cec906044015f604051808303815f87803b158015610d5d575f80fd5b505af1158015610d6f573d5f803e3d5ffd5b50505050509392505050565b5f5f805160206111158339815191528054604051630f8e573b60e21b8152600481018690526001600160a01b038581166024830152929350911690633e395cec906044015f604051808303815f87803b158015610dd6575f80fd5b505af1158015610de8573d5f803e3d5ffd5b50505050505050565b5f808215610e045750600160f81b610e07565b505f5b5f805160206110f58339815191525460405163f77f3f1d60e01b81525f80516020611115833981519152916001600160a01b03169063f77f3f1d90610e54908990899087906004016110d4565b6020604051808303815f875af1158015610e70573d5f803e3d5ffd5b505050506040513d601f19601f82011682018060405250810190610e94919061104c565b9695505050505050565b5f808215610eb15750600160f81b610eb4565b505f5b5f805160206110f58339815191525460405163d99882d560e01b81525f80516020611115833981519152916001600160a01b03169063d99882d590610e54908990899087906004016110d4565b5f808215610f145750600160f81b610f17565b505f5b5f805160206110f5833981519152546040516363a2db2960e01b81525f80516020611115833981519152916001600160a01b0316906363a2db2990610e54908990899087906004016110d4565b5f60208284031215610f74575f80fd5b5035919050565b5f805f8060608587031215610f8e575f80fd5b8435935060208501359250604085013567ffffffffffffffff80821115610fb3575f80fd5b818701915087601f830112610fc6575f80fd5b813581811115610fd4575f80fd5b886020828501011115610fe5575f80fd5b95989497505060200194505050565b5f6001820161101157634e487b7160e01b5f52601160045260245ffd5b5060010190565b6054811061103457634e487b7160e01b5f52602160045260245ffd5b9052565b828152604081016102a96020830184611018565b5f6020828403121561105c575f80fd5b5051919050565b8481525f602060018060a01b03861660208401526080604084015284518060808501525f5b818110156110a45786810183015185820160a001528201611088565b505f60a0828601015260a0601f19601f830116850101925050506110cb6060830184611018565b95945050505050565b92835260208301919091526001600160f81b03191660408201526060019056fe9e7b61f58c47dc699ac88507c4f5bb9f121c03808c5676a8078fe583e46497019e7b61f58c47dc699ac88507c4f5bb9f121c03808c5676a8078fe583e4649700a2646970667358221220aae9b3aa0202fe08e9d4ad68d24737ab2712948911cdb3286ffaf08f671abbfb64736f6c63430008180033",
  "linkReferences": {},
  "deployedLinkReferences": {}
}