{
  "_format": "hh-sol-artifact-1",
  "contractName": "RockPaperScissors",
  "sourceName": "contracts/RockPaperScissors.sol",
  "abi": [
    {
      "inputs": [],
      "stateMutability": "nonpayable",
      "type": "constructor"
    },
    {
      "inputs": [],
      "name": "HandlesAlreadySavedForRequestID",
      "type": "error"
    },
    {
      "inputs": [],
      "name": "InvalidKMSSignatures",
      "type": "error"
    },
    {
      "inputs": [],
      "name": "NoHandleFoundForRequestID",
      "type": "error"
    },
    {
      "anonymous": false,
      "inputs": [
        {
          "indexed": true,
          "internalType": "uint256",
          "name": "requestID",
          "type": "uint256"
        }
      ],
      "name": "DecryptionFulfilled",
      "type": "event"
    },
    {
      "anonymous": false,
      "inputs": [
        {
          "indexed": true,
          "internalType": "uint256",
          "name": "gameId",
          "type": "uint256"
        },
        {
          "indexed": true,
          "internalType": "uint256",
          "name": "requestId",
          "type": "uint256"
        }
      ],
      "name": "DecryptionRequested",
      "type": "event"
    },
    {
      "anonymous": false,
      "inputs": [
        {
          "indexed": true,
          "internalType": "uint256",
          "name": "gameId",
          "type": "uint256"
        },
        {
          "indexed": true,
          "internalType": "address",
          "name": "player1",
          "type": "address"
        }
      ],
      "name": "GameCreated",
      "type": "event"
    },
    {
      "anonymous": false,
      "inputs": [
        {
          "indexed": true,
          "internalType": "uint256",
          "name": "gameId",
          "type": "uint256"
        },
        {
          "indexed": false,
          "internalType": "address",
          "name": "winner",
          "type": "address"
        },
        {
          "indexed": false,
          "internalType": "bool",
          "name": "isDraw",
          "type": "bool"
        }
      ],
      "name": "GameFinished",
      "type": "event"
    },
    {
      "anonymous": false,
      "inputs": [
        {
          "indexed": true,
          "internalType": "uint256",
          "name": "gameId",
          "type": "uint256"
        },
        {
          "indexed": true,
          "internalType": "address",
          "name": "player",
          "type": "address"
        },
        {
          "indexed": false,
          "internalType": "bool",
          "name": "isPlayer1",
          "type": "bool"
        }
      ],
      "name": "MoveMade",
      "type": "event"
    },
    {
      "anonymous": false,
      "inputs": [
        {
          "indexed": true,
          "internalType": "uint256",
          "name": "gameId",
          "type": "uint256"
        },
        {
          "indexed": true,
          "internalType": "address",
          "name": "player2",
          "type": "address"
        }
      ],
      "name": "PlayerJoined",
      "type": "event"
    },
    {
      "inputs": [],
      "name": "createGame",
      "outputs": [
        {
          "internalType": "uint256",
          "name": "",
          "type": "uint256"
        }
      ],
      "stateMutability": "nonpayable",
      "type": "function"
    },
    {
      "inputs": [],
      "name": "gameCounter",
      "outputs": [
        {
          "internalType": "uint256",
          "name": "",
          "type": "uint256"
        }
      ],
      "stateMutability": "view",
      "type": "function"
    },
    {
      "inputs": [
        {
          "internalType": "uint256",
          "name": "requestId",
          "type": "uint256"
        },
        {
          "internalType": "bytes",
          "name": "cleartexts",
          "type": "bytes"
        },
        {
          "internalType": "bytes",
          "name": "decryptionProof",
          "type": "bytes"
        }
      ],
      "name": "gameResolutionCallback",
      "outputs": [],
      "stateMutability": "nonpayable",
      "type": "function"
    },
    {
      "inputs": [
        {
          "internalType": "uint256",
          "name": "",
          "type": "uint256"
        }
      ],
      "name": "games",
      "outputs": [
        {
          "internalType": "address",
          "name": "player1",
          "type": "address"
        },
        {
          "internalType": "address",
          "name": "player2",
          "type": "address"
        },
        {
          "internalType": "euint8",
          "name": "encryptedMove1",
          "type": "bytes32"
        },
        {
          "internalType": "euint8",
          "name": "encryptedMove2",
          "type": "bytes32"
        },
        {
          "internalType": "bool",
          "name": "player1Committed",
          "type": "bool"
        },
        {
          "internalType": "bool",
          "name": "player2Committed",
          "type": "bool"
        },
        {
          "internalType": "enum RockPaperScissors.GameStatus",
          "name": "status",
          "type": "uint8"
        },
        {
          "internalType": "uint256",
          "name": "createdAt",
          "type": "uint256"
        },
        {
          "internalType": "uint256",
          "name": "requestId",
          "type": "uint256"
        },
        {
          "internalType": "bool",
          "name": "isDraw",
          "type": "bool"
        },
        {
          "internalType": "bool",
          "name": "player1Wins",
          "type": "bool"
        },
        {
          "internalType": "bool",
          "name": "resultsDecrypted",
          "type": "bool"
        }
      ],
      "stateMutability": "view",
      "type": "function"
    },
    {
      "inputs": [
        {
          "internalType": "uint256",
          "name": "gameId",
          "type": "uint256"
        }
      ],
      "name": "getGame",
      "outputs": [
        {
          "internalType": "address",
          "name": "player1",
          "type": "address"
        },
        {
          "internalType": "address",
          "name": "player2",
          "type": "address"
        },
        {
          "internalType": "enum RockPaperScissors.GameStatus",
          "name": "status",
          "type": "uint8"
        },
        {
          "internalType": "bool",
          "name": "player1Committed",
          "type": "bool"
        },
        {
          "internalType": "bool",
          "name": "player2Committed",
          "type": "bool"
        },
        {
          "internalType": "bool",
          "name": "resultsDecrypted",
          "type": "bool"
        }
      ],
      "stateMutability": "view",
      "type": "function"
    },
    {
      "inputs": [],
      "name": "getGameCounter",
      "outputs": [
        {
          "internalType": "uint256",
          "name": "",
          "type": "uint256"
        }
      ],
      "stateMutability": "view",
      "type": "function"
    },
    {
      "inputs": [
        {
          "internalType": "uint256",
          "name": "gameId",
          "type": "uint256"
        }
      ],
      "name": "getGameRequestId",
      "outputs": [
        {
          "internalType": "uint256",
          "name": "",
          "type": "uint256"
        }
      ],
      "stateMutability": "view",
      "type": "function"
    },
    {
      "inputs": [
        {
          "internalType": "uint256",
          "name": "gameId",
          "type": "uint256"
        }
      ],
      "name": "getGameResults",
      "outputs": [
        {
          "internalType": "bool",
          "name": "isDraw",
          "type": "bool"
        },
        {
          "internalType": "bool",
          "name": "player1Wins",
          "type": "bool"
        },
        {
          "internalType": "address",
          "name": "winner",
          "type": "address"
        }
      ],
      "stateMutability": "view",
      "type": "function"
    },
    {
      "inputs": [
        {
          "internalType": "uint256",
          "name": "gameId",
          "type": "uint256"
        }
      ],
      "name": "isGameReady",
      "outputs": [
        {
          "internalType": "bool",
          "name": "",
          "type": "bool"
        }
      ],
      "stateMutability": "view",
      "type": "function"
    },
    {
      "inputs": [
        {
          "internalType": "uint256",
          "name": "gameId",
          "type": "uint256"
        }
      ],
      "name": "joinGame",
      "outputs": [],
      "stateMutability": "nonpayable",
      "type": "function"
    },
    {
      "inputs": [
        {
          "internalType": "uint256",
          "name": "gameId",
          "type": "uint256"
        },
        {
          "internalType": "externalEuint8",
          "name": "encryptedMove",
          "type": "bytes32"
        },
        {
          "internalType": "bytes",
          "name": "inputProof",
          "type": "bytes"
        }
      ],
      "name": "makeMove",
      "outputs": [],
      "stateMutability": "nonpayable",
      "type": "function"
    },
    {
      "inputs": [],
      "name": "protocolId",
      "outputs": [
        {
          "internalType": "uint256",
          "name": "",
          "type": "uint256"
        }
      ],
      "stateMutability": "pure",
      "type": "function"
    },
    {
      "inputs": [
        {
          "internalType": "uint256",
          "name": "gameId",
          "type": "uint256"
        }
      ],
      "name": "requestGameResolution",
      "outputs": [],
      "stateMutability": "nonpayable",
      "type": "function"
    },
    {
      "inputs": [
        {
          "internalType": "uint256",
          "name": "",
          "type": "uint256"
        }
      ],
      "name": "requestIdToGameId",
      "outputs": [
        {
          "internalType": "uint256",
          "name": "",
          "type": "uint256"
        }
      ],
      "stateMutability": "view",
      "type": "function"
    }
  ],
  "bytecode": "0x608060405234610154575f6060610014610158565b828152826020820152826040820152015261002d610158565b606073687820221192c5b662b25367f70076a37bc79b6c9182815273848b0066793bcc60346da1f49049357399b8d59580602083015273a02cda4ca3a71d7c46997716f4283aa851c2881291826040820152731364cbbf2cdf5032c47d8226a6f6fbd2afcdacac938491015260018060a01b0319937f9e7b61f58c47dc699ac88507c4f5bb9f121c03808c5676a8078fe583e464970090858254161790557f9e7b61f58c47dc699ac88507c4f5bb9f121c03808c5676a8078fe583e464970190848254161790557f9e7b61f58c47dc699ac88507c4f5bb9f121c03808c5676a8078fe583e464970290838254161790557f9e7b61f58c47dc699ac88507c4f5bb9f121c03808c5676a8078fe583e464970391825416179055604051611aac908161018c8239f35b5f80fd5b60405190608082016001600160401b0381118382101761017757604052565b634e487b7160e01b5f52604160045260245ffdfe6080806040526004361015610012575f80fd5b5f905f3560e01c908163117a5b9014611436575080631ef6c58a14610f0a5780631fa072db14610ee05780632b08b6de14610e5d5780632e0be39a146108715780637255d72914610c325780638de506851461088f578063944ccc371461087157806395e0ae2c14610845578063a2f77bcc146107b4578063afba87401461035e578063da1f12ab14610341578063dcef63eb146102535763efaa55a0146100b8575f80fd5b346102505760203660031901126102505760043580825260208290526040822080546001600160a01b03908116916100f183151561161d565b6001810192835492831661020b5733146101c6576004019182549060ff8260101c1660058110156101b25761016d57620100009233906bffffffffffffffffffffffff60a01b1617905562ff0000191617905533907f87969bc7faf902221a147b95ceba76e011c5efb0339a0a8ee7a2bb82d9cfbbd68380a380f35b60405162461bcd60e51b815260206004820152601960248201527f47616d65206e6f7420696e2077616974696e67207374617465000000000000006044820152606490fd5b634e487b7160e01b87526021600452602487fd5b60405162461bcd60e51b815260206004820152601c60248201527f43616e6e6f7420706c617920616761696e737420796f757273656c66000000006044820152606490fd5b60405162461bcd60e51b815260206004820152601c60248201527f47616d6520616c7265616479206861732074776f20706c6179657273000000006044820152606490fd5b80fd5b503461025057602036600319011261025057600435815260208190526040812080546001600160a01b03908116929161028d84151561161d565b600781015460ff8160101c16156102fc5760609483859360ff84161596876102d1575b5050505060ff906040519415855260081c1615156020840152166040820152f35b60ff94955050838560081c165f146102f05750505b9190835f806102b0565b600101541690506102e6565b60405162461bcd60e51b815260206004820152601960248201527f526573756c7473206e6f742079657420646563727970746564000000000000006044820152606490fd5b503461025057806003193601126102505760206040516127118152f35b50346102505760603660031901126102505767ffffffffffffffff6024358181116107b057610391903690600401611585565b906044359081116107b0576103aa903690600401611585565b9030331480156107a7575b156107625760043583526001806020526040842054928315801590610749575b1561070d5783855284602052604085209060043586527f878245876662ba28a480c5ea71726db859fb50222b0a3d7cbbc21cfa336faf01806020526040872054156106fb57600435875260205260408620926040519081948591602082549485815201918a5260208a20938a5b8181106106e3575050506104589250038461151d565b83519081602001806020116106cf5760408301106106bb57610514916020916104a9604080518094828b610494815180928b8088019101611a10565b8301910187820152038581018552018361151d565b6105028960018060a01b0397610526897f9e7b61f58c47dc699ac88507c4f5bb9f121c03808c5676a8078fe583e4649703541694604051988997889687956378542ead60e01b87526060600488015260648701906119dd565b85810360031901602487015290611a31565b83810360031901604485015290611a31565b03925af19081156106b0578691610672575b5015610660576004357f1af0453083661051f6e56e5c070792320652e612154bf9af8637bb1e7655b99d8680a260408380518101031261065c57826040926105ae846105a760207f3c407d684f8e26ac47a42a0e982bc16fe05e96ce344f63a5736ec6c2690d7780980161165f565b930161165f565b926105e360078201946105cd85879060ff801983541691151516179055565b855461ff00191690151560081b61ff0016178555565b62ff0000196201000081865416178555620400006004830191825416179055600435885260016020525f8589205587600682015587935460ff811615610637575b505083519216825215156020820152a280f35b82945060ff9060081c165f146106525754165b915f80610624565b600101541661064a565b8480fd5b60405163cf6c44e960e01b8152600490fd5b90506020813d6020116106a8575b8161068d6020938361151d565b810103126106a45761069e9061165f565b5f610538565b8580fd5b3d9150610680565b6040513d88823e3d90fd5b634e487b7160e01b87526011600452602487fd5b634e487b7160e01b88526011600452602488fd5b85548452948201948894506020909301928201610442565b60405163d66ca67560e01b8152600490fd5b60405162461bcd60e51b815260206004820152601460248201527314995c5d595cdd081251081b9bdd08199bdd5b9960621b6044820152606490fd5b50848052846020526004356006604087200154146103d5565b60405162461bcd60e51b815260206004820152601960248201527f4f6e6c79206f7261636c652063616e2063616c6c2074686973000000000000006044820152606490fd5b50333b156103b5565b8280fd5b5034610250576020366003190112610250576004358152602081905260409020805460c0916001600160a01b039182169160ff906107f384151561161d565b60018301541691816007600483015492015460101c1692604051948552602085015261082760408501838360101c166114fc565b8181161515606085015260081c1615156080830152151560a0820152f35b503461025057602036600319011261025057600660406020926004358152808452200154604051908152f35b50346102505780600319360112610250576020600254604051908152f35b50346102505760603660031901126102505767ffffffffffffffff604435600435602483831161065c573660238401121561065c57826004013593841161065c573681858501011161065c578185526020928584526040862061090960018060a01b039182808254163314918215610c21575b50506115a3565b8387528685526040872091600483019660ff885460101c166005811015610c0e57600103610bca576109886109468a95949389938836920161153f565b835f80516020611a5783398151915254169060405196878094819363196d0b9b60e01b83528b356004840152338c840152608060448401526084830190611a31565b6002606483015203925af1928315610bbf578893610b8c575b5087817f9e7b61f58c47dc699ac88507c4f5bb9f121c03808c5676a8078fe583e46497005416803b15610b8857604051630f8e573b60e21b8152600481018690523360248201529082908290604490829084905af18015610b7d57610b65575b5050610a0c83611827565b5081541633145f14610ad55785549260ff8416610a9257506002015560ff19166001908117845560405190815233927ec61e485e1d71e85a7fd0ed66df00e8ae91c7cb6c64f9ed157728bb2088246c91a35b805460ff811680610a85575b610a72578280f35b62ff00001916620200001790555f808280f35b5060ff8160081c16610a6a565b85601a6064926040519262461bcd60e51b845260048401528201527f506c61796572203120616c726561647920636f6d6d69747465640000000000006044820152fd5b85549260ff8460081c16610b2257506003015561ff00191661010017835560405184815233927ec61e485e1d71e85a7fd0ed66df00e8ae91c7cb6c64f9ed157728bb2088246c91a3610a5e565b85601a6064926040519262461bcd60e51b845260048401528201527f506c61796572203220616c726561647920636f6d6d69747465640000000000006044820152fd5b610b6e90611509565b610b7957875f610a01565b8780fd5b6040513d84823e3d90fd5b5080fd5b9092508581813d8311610bb8575b610ba4818361151d565b81010312610bb45751915f6109a1565b5f80fd5b503d610b9a565b6040513d8a823e3d90fd5b60405162461bcd60e51b8152600481018890526018818701527f47616d65206e6f7420616363657074696e67206d6f76657300000000000000006044820152606490fd5b634e487b7160e01b8a526021600452858afd5b60019192500154163314825f610902565b503461025057806003193601126102505760025490610c50826115fb565b600255610c5b611898565b91610c64611898565b604051610180810181811067ffffffffffffffff821117610e4957604052338152602081018481526040820195865260608201928352608082019085825260a083019286845260c081019387855260e08201944286526101008301918983526101208401978a895261014085019b8b8d526101608601968c88528b8d528c60205260408d2096600160a01b6001900380915116906bffffffffffffffffffffffff60a01b91828a541617895560018901925116908254161790555160028601555160038501556004840195511515610d4890879060ff801983541691151516179055565b51855461ff00191690151560081b61ff001617855551946005861015610e35576007610dc99360209b93610db29388549862ff000019998a62ff0000809d60101b1691161790555160058301555160068201550196511515879060ff801983541691151516179055565b51855461ff00191690151560081b61ff0016178555565b5115159183549260101b169116179055808252818352610def6002604084200154611827565b50808252818352610e066003604084200154611827565b5060405191817fc3e0f84839dc888c892a013d10c8f9d6dc05a21a879d0ce468ca558013e9121c339280a38152f35b634e487b7160e01b89526021600452602489fd5b634e487b7160e01b5f52604160045260245ffd5b503461025057602036600319011261025057600435815280602052600460408220015460ff81169081610ed1575b81610e9e575b6020826040519015158152f35b60ff915060101c16906005821015610ebd57506002602091145f610e91565b634e487b7160e01b81526021600452602490fd5b905060ff8160081c1690610e8b565b50346102505760203660031901126102505760406020916004358152600183522054604051908152f35b5034610bb457602080600319360112610bb457600435805f525f825260405f2091610f4b60018060a01b0393848082541633149182156114255750506115a3565b815f525f815260405f2092600484019060ff825460101c166005811015611411576002036113cc5760068501908154611387576110106003600288015497015461100b610f98828a61166c565b98611005610fc7610fb0610faa611898565b8461166c565b610fc1610fbb6118eb565b8761166c565b9061171f565b93610fc1610ffc610fed610fdc610fbb61193e565b610fc1610fe7611898565b8661166c565b94610ff66118eb565b9061166c565b91610ff661193e565b926117a3565b6117a3565b7f9e7b61f58c47dc699ac88507c4f5bb9f121c03808c5676a8078fe583e46497009682885416803b15610bb457604051630f8e573b60e21b80825260048201849052336024830152915f908290604490829084905af1801561137c57611369575b508990848a541690813b156107b057604051908152600481018590523360248201529082908290604490829084905af18015610b7d57611351575b505060405167ffffffffffffffff916060820183811183821017610e49576040526002825287820190604036833782511561133d5781528151936001946001101561133d5760408301528a7f878245876662ba28a480c5ea71726db859fb50222b0a3d7cbbc21cfa336faf00958087549c5416803b156107b057826040518092637d6e912360e11b82528d600483015281838161114c602482018c6119dd565b03925af190811561133257839161131e575b50507f9e7b61f58c47dc699ac88507c4f5bb9f121c03808c5676a8078fe583e46497025416803b15610b8857818c604051928391633263b83b60e01b83526004830152606060248301528183816111b8606482018b6119dd565b6302beea1d60e61b604483015203925af18015610b7d57611306575b508a90527f878245876662ba28a480c5ea71726db859fb50222b0a3d7cbbc21cfa336faf0180895260408c20546112f4578a8c52885260408b2091519283116112e0576801000000000000000083116112e05781548383558084106112b9575b509189949297969593918b52868b20978b985b828a106112a357505050506001955061126081546115fb565b9055556203000062ff000019825416179055838552528060408420557f81bca54e6c48c44ec959a5581796be73005cbde51156a29bae607f52e9baa16c8380a380f35b81518a820155988301988b965090880190611247565b84848a8e8681522092830192015b8281106112d5575050611234565b5f81550185906112c7565b634e487b7160e01b8b52604160045260248bfd5b604051633f06d22b60e01b8152600490fd5b61130f90611509565b61131a578a5f6111d4565b8a80fd5b61132790611509565b610b8857815f61115e565b6040513d85823e3d90fd5b634e487b7160e01b5f52603260045260245ffd5b61135a90611509565b61136557885f6110ac565b8880fd5b611374919a50611509565b5f985f611071565b6040513d5f823e3d90fd5b60405162461bcd60e51b815260048101859052601c60248201527f5265736f6c7574696f6e20616c726561647920726571756573746564000000006044820152606490fd5b60405162461bcd60e51b815260048101849052601d60248201527f47616d65206e6f7420726561647920666f72207265736f6c7574696f6e0000006044820152606490fd5b634e487b7160e01b5f52602160045260245ffd5b60019192500154163314845f610902565b34610bb4576020366003190112610bb457610180906004355f525f60205260405f2060018060a01b038082541690600183015416916002810154926114ca600383015460048401549060ff9660058601549460076006880154970154978a5260208a01526040890152606088015285811615156080880152858160081c16151560a08801528560c088019160101c166114fc565b60e08501526101008401528181161515610120840152818160081c16151561014084015260101c161515610160820152f35b9060058210156114115752565b67ffffffffffffffff8111610e4957604052565b90601f8019910116810190811067ffffffffffffffff821117610e4957604052565b92919267ffffffffffffffff8211610e495760405191611569601f8201601f19166020018461151d565b829481845281830111610bb4578281602093845f960137010152565b9080601f83011215610bb4578160206115a09335910161153f565b90565b156115aa57565b60405162461bcd60e51b8152602060048201526024808201527f4f6e6c7920706c61796572732063616e20706572666f726d20746869732061636044820152633a34b7b760e11b6064820152608490fd5b5f1981146116095760010190565b634e487b7160e01b5f52601160045260245ffd5b1561162457565b60405162461bcd60e51b815260206004820152601360248201527211d85b5948191bd95cc81b9bdd08195e1a5cdd606a1b6044820152606490fd5b51908115158203610bb457565b90811561170f575b80156116fd575b602090606460018060a01b035f80516020611a578339815191525416935f604051958694859363f77f3f1d60e01b8552600485015260248401528160448401525af190811561137c575f916116ce575090565b90506020813d6020116116f5575b816116e96020938361151d565b81010312610bb4575190565b3d91506116dc565b506020611708611898565b905061167b565b9050611719611898565b90611674565b908115611793575b8015611781575b602090606460018060a01b035f80516020611a578339815191525416935f604051958694859363d99882d560e01b8552600485015260248401528160448401525af190811561137c575f916116ce575090565b50602061178c611991565b905061172e565b905061179d611991565b90611727565b908115611817575b8015611805575b602090606460018060a01b035f80516020611a578339815191525416935f60405195869485936363a2db2960e01b8552600485015260248401528160448401525af190811561137c575f916116ce575090565b506020611810611991565b90506117b2565b9050611821611991565b906117ab565b7f9e7b61f58c47dc699ac88507c4f5bb9f121c03808c5676a8078fe583e4649700546001600160a01b0316803b15610bb457604051635ca4b5b160e11b815260048101839052306024820152905f908290604490829084905af1801561137c5761188f575090565b6115a090611509565b5f80516020611a5783398151915254604051639cd07acb60e01b81525f60048201819052600260248301529091602091839160449183916001600160a01b03165af190811561137c575f916116ce575090565b5f80516020611a5783398151915254604051639cd07acb60e01b8152600260048201819052602482015290602090829060449082905f906001600160a01b03165af190811561137c575f916116ce575090565b5f80516020611a5783398151915254604051639cd07acb60e01b8152600160048201526002602482015290602090829060449082905f906001600160a01b03165af190811561137c575f916116ce575090565b5f602060018060a01b035f80516020611a578339815191525416604460405180948193639cd07acb60e01b83528160048401528160248401525af190811561137c575f916116ce575090565b9081518082526020808093019301915f5b8281106119fc575050505090565b8351855293810193928101926001016119ee565b5f5b838110611a215750505f910152565b8181015183820152602001611a12565b90602091611a4a81518092818552858086019101611a10565b601f01601f191601019056fe9e7b61f58c47dc699ac88507c4f5bb9f121c03808c5676a8078fe583e4649701a264697066735822122050adacdac08be55dc0a16eb187d46abd024e49e7c15edcbdfe336303b6bf14d264736f6c63430008180033",
  "linkReferences": {},
  "deployedLinkReferences": {}
}