{
  "_format": "hh-sol-artifact-1",
  "contractName": "RockPaperScissors",
  "sourceName": "contracts/RockPaperScissors.sol",
  "abi": [
    {
      "anonymous": false,
      "inputs": [
        {
          "indexed": true,
          "internalType": "uint256",
          "name": "gameId",
          "type": "uint256"
        },
        {
          "indexed": true,
          "internalType": "address",
          "name": "player1",
          "type": "address"
        }
      ],
      "name": "GameCreated",
      "type": "event"
    },
    {
      "anonymous": false,
      "inputs": [
        {
          "indexed": true,
          "internalType": "uint256",
          "name": "gameId",
          "type": "uint256"
        },
        {
          "indexed": false,
          "internalType": "address",
          "name": "winner",
          "type": "address"
        },
        {
          "indexed": false,
          "internalType": "bool",
          "name": "isDraw",
          "type": "bool"
        }
      ],
      "name": "GameFinished",
      "type": "event"
    },
    {
      "anonymous": false,
      "inputs": [
        {
          "indexed": true,
          "internalType": "uint256",
          "name": "gameId",
          "type": "uint256"
        },
        {
          "indexed": true,
          "internalType": "address",
          "name": "player",
          "type": "address"
        },
        {
          "indexed": false,
          "internalType": "bool",
          "name": "isPlayer1",
          "type": "bool"
        }
      ],
      "name": "MoveMade",
      "type": "event"
    },
    {
      "inputs": [],
      "name": "createGame",
      "outputs": [
        {
          "internalType": "uint256",
          "name": "",
          "type": "uint256"
        }
      ],
      "stateMutability": "nonpayable",
      "type": "function"
    },
    {
      "inputs": [
        {
          "internalType": "uint256",
          "name": "gameId",
          "type": "uint256"
        }
      ],
      "name": "determineWinner",
      "outputs": [
        {
          "internalType": "address",
          "name": "",
          "type": "address"
        }
      ],
      "stateMutability": "nonpayable",
      "type": "function"
    },
    {
      "inputs": [],
      "name": "gameCounter",
      "outputs": [
        {
          "internalType": "uint256",
          "name": "",
          "type": "uint256"
        }
      ],
      "stateMutability": "view",
      "type": "function"
    },
    {
      "inputs": [
        {
          "internalType": "uint256",
          "name": "",
          "type": "uint256"
        }
      ],
      "name": "games",
      "outputs": [
        {
          "internalType": "address",
          "name": "player1",
          "type": "address"
        },
        {
          "internalType": "address",
          "name": "player2",
          "type": "address"
        },
        {
          "internalType": "euint8",
          "name": "encryptedMove1",
          "type": "bytes32"
        },
        {
          "internalType": "euint8",
          "name": "encryptedMove2",
          "type": "bytes32"
        },
        {
          "internalType": "bool",
          "name": "player1Committed",
          "type": "bool"
        },
        {
          "internalType": "bool",
          "name": "player2Committed",
          "type": "bool"
        },
        {
          "internalType": "bool",
          "name": "gameFinished",
          "type": "bool"
        },
        {
          "internalType": "uint256",
          "name": "createdAt",
          "type": "uint256"
        }
      ],
      "stateMutability": "view",
      "type": "function"
    },
    {
      "inputs": [
        {
          "internalType": "uint256",
          "name": "gameId",
          "type": "uint256"
        }
      ],
      "name": "getMyMove",
      "outputs": [
        {
          "internalType": "euint8",
          "name": "",
          "type": "bytes32"
        }
      ],
      "stateMutability": "nonpayable",
      "type": "function"
    },
    {
      "inputs": [
        {
          "internalType": "uint256",
          "name": "gameId",
          "type": "uint256"
        }
      ],
      "name": "isGameReady",
      "outputs": [
        {
          "internalType": "bool",
          "name": "",
          "type": "bool"
        }
      ],
      "stateMutability": "view",
      "type": "function"
    },
    {
      "inputs": [
        {
          "internalType": "uint256",
          "name": "gameId",
          "type": "uint256"
        }
      ],
      "name": "joinGame",
      "outputs": [],
      "stateMutability": "nonpayable",
      "type": "function"
    },
    {
      "inputs": [
        {
          "internalType": "uint256",
          "name": "gameId",
          "type": "uint256"
        },
        {
          "internalType": "externalEuint8",
          "name": "encryptedMove",
          "type": "bytes32"
        },
        {
          "internalType": "bytes",
          "name": "inputProof",
          "type": "bytes"
        }
      ],
      "name": "makeMove",
      "outputs": [],
      "stateMutability": "nonpayable",
      "type": "function"
    },
    {
      "inputs": [],
      "name": "protocolId",
      "outputs": [
        {
          "internalType": "uint256",
          "name": "",
          "type": "uint256"
        }
      ],
      "stateMutability": "pure",
      "type": "function"
    }
  ],
  "bytecode": "0x608060405234801561000f575f80fd5b5061018a6100ae604080516080810182525f808252602082018190529181018290526060810191909152506040805160808101825273687820221192c5b662b25367f70076a37bc79b6c815273848b0066793bcc60346da1f49049357399b8d595602082015273a02cda4ca3a71d7c46997716f4283aa851c2881291810191909152731364cbbf2cdf5032c47d8226a6f6fbd2afcdacac606082015290565b80517f9e7b61f58c47dc699ac88507c4f5bb9f121c03808c5676a8078fe583e464970080546001600160a01b03199081166001600160a01b039384161790915560208301517f9e7b61f58c47dc699ac88507c4f5bb9f121c03808c5676a8078fe583e46497018054831691841691909117905560408301517f9e7b61f58c47dc699ac88507c4f5bb9f121c03808c5676a8078fe583e46497028054831691841691909117905560608301517f9e7b61f58c47dc699ac88507c4f5bb9f121c03808c5676a8078fe583e46497038054909216921691909117905550565b610f9f806101975f395ff3fe608060405234801561000f575f80fd5b5060043610610090575f3560e01c80638de50685116100635780638de506851461018e578063c1715bff146101a3578063da1f12ab146101b6578063efaa55a0146101be578063efe43338146101d1575f80fd5b8063117a5b90146100945780632b08b6de1461014c5780632e0be39a1461016f5780637255d72914610186575b5f80fd5b6100fb6100a2366004610d99565b5f602081905290815260409020805460018201546002830154600384015460048501546005909501546001600160a01b039485169594909316939192909160ff8082169261010083048216926201000090049091169088565b604080516001600160a01b03998a16815298909716602089015295870194909452606086019290925215156080850152151560a0840152151560c083015260e0820152610100015b60405180910390f35b61015f61015a366004610d99565b6101fc565b6040519015158152602001610143565b61017860015481565b604051908152602001610143565b61017861022d565b6101a161019c366004610db0565b61037d565b005b6101786101b1366004610d99565b610632565b612711610178565b6101a16101cc366004610d99565b6106ee565b6101e46101df366004610d99565b610814565b6040516001600160a01b039091168152602001610143565b5f818152602081905260408120600481015460ff16801561022657506004810154610100900460ff165b9392505050565b600180545f918291908261024083610e29565b919050559050604051806101000160405280336001600160a01b031681526020015f6001600160a01b031681526020016102795f610946565b81526020016102875f610946565b81525f60208083018290526040808401839052606080850184905242608095860152868452838352818420865181546001600160a01b03199081166001600160a01b039283161783559488015160018301805490961691161790935585820151600284015585015160038301559284015160048201805460a087015160c088015161ffff1990921693151561ff00191693909317610100931515939093029290921762ff00001916620100009215159290920291909117905560e09093015160059093019290925551339183917fc3e0f84839dc888c892a013d10c8f9d6dc05a21a879d0ce468ca558013e9121c9190a3919050565b5f848152602081905260409020600481015462010000900460ff16156103e25760405162461bcd60e51b815260206004820152601560248201527411d85b5948185b1c9958591e48199a5b9a5cda1959605a1b60448201526064015b60405180910390fd5b80546001600160a01b0316331480610406575060018101546001600160a01b031633145b61044e5760405162461bcd60e51b81526020600482015260196024820152784e6f74206120706c6179657220696e20746869732067616d6560381b60448201526064016103d9565b5f61048e8585858080601f0160208091040260200160405190810160405280939291908181526020018383808284375f9201919091525061095b92505050565b82549091506001600160a01b0316330361054b57600482015460ff16156104f75760405162461bcd60e51b815260206004820152601a60248201527f506c61796572203120616c726561647920636f6d6d697474656400000000000060448201526064016103d9565b6002820181905560048201805460ff19166001908117909155604051908152339087907ec61e485e1d71e85a7fd0ed66df00e8ae91c7cb6c64f9ed157728bb2088246c9060200160405180910390a36105f4565b6004820154610100900460ff16156105a55760405162461bcd60e51b815260206004820152601a60248201527f506c61796572203220616c726561647920636f6d6d697474656400000000000060448201526064016103d9565b6003820181905560048201805461ff0019166101001790556040515f8152339087907ec61e485e1d71e85a7fd0ed66df00e8ae91c7cb6c64f9ed157728bb2088246c9060200160405180910390a35b600482015460ff16801561061157506004820154610100900460ff165b1561062a5760048201805462ff00001916620100001790555b505050505050565b5f81815260208190526040812080546001600160a01b0316331480610663575060018101546001600160a01b031633145b6106ab5760405162461bcd60e51b81526020600482015260196024820152784e6f74206120706c6179657220696e20746869732067616d6560381b60448201526064016103d9565b80546001600160a01b031633036106d5576106ca816002015433610968565b506002015492915050565b6106e3816003015433610968565b506003015492915050565b5f81815260208190526040902080546001600160a01b03166107485760405162461bcd60e51b815260206004820152601360248201527211d85b5948191bd95cc81b9bdd08195e1a5cdd606a1b60448201526064016103d9565b60018101546001600160a01b0316156107a35760405162461bcd60e51b815260206004820152601c60248201527f47616d6520616c7265616479206861732074776f20706c61796572730000000060448201526064016103d9565b8054336001600160a01b03909116036107fe5760405162461bcd60e51b815260206004820152601c60248201527f43616e6e6f7420706c617920616761696e737420796f757273656c660000000060448201526064016103d9565b60010180546001600160a01b0319163317905550565b5f818152602081905260408120600481015462010000900460ff166108735760405162461bcd60e51b815260206004820152601560248201527411d85b59481b9bdd08199a5b9a5cda1959081e595d605a1b60448201526064016103d9565b600281015460038201545f610888838361097a565b90505f61089d846108985f610946565b61097a565b90505f6108ae846108986002610946565b90505f6108bb83836109a8565b90505f6108cc876108986001610946565b90505f6108dc876108985f610946565b90505f6108e983836109a8565b90505f6108fa8a6108986002610946565b90505f61090b8a6108986001610946565b90505f61091883836109a8565b90505f61092e61092889876109d6565b836109d6565b90505f9e505050505050505050505050505050919050565b5f6109558260ff166002610a04565b92915050565b5f61022683836002610a9b565b5f6109738383610b95565b5090919050565b5f8261098c576109895f610946565b92505b8161099d5761099a5f610946565b91505b61022683835f610c0b565b5f826109ba576109b75f610cb8565b92505b816109cb576109c85f610cb8565b91505b61022683835f610cd3565b5f826109e8576109e55f610cb8565b92505b816109f9576109f65f610cb8565b91505b61022683835f610d36565b5f80516020610f2a83398151915254604051639cd07acb60e01b81525f915f80516020610f4a833981519152916001600160a01b0390911690639cd07acb90610a539087908790600401610e6d565b6020604051808303815f875af1158015610a6f573d5f803e3d5ffd5b505050506040513d601f19601f82011682018060405250810190610a939190610e81565b949350505050565b5f80516020610f2a8339815191525460405163196d0b9b60e01b81525f915f80516020610f4a833981519152916001600160a01b039091169063196d0b9b90610aee908890339089908990600401610e98565b6020604051808303815f875af1158015610b0a573d5f803e3d5ffd5b505050506040513d601f19601f82011682018060405250810190610b2e9190610e81565b8154604051630f8e573b60e21b8152600481018390523360248201529193506001600160a01b031690633e395cec906044015f604051808303815f87803b158015610b77575f80fd5b505af1158015610b89573d5f803e3d5ffd5b50505050509392505050565b5f5f80516020610f4a8339815191528054604051630f8e573b60e21b8152600481018690526001600160a01b038581166024830152929350911690633e395cec906044015f604051808303815f87803b158015610bf0575f80fd5b505af1158015610c02573d5f803e3d5ffd5b50505050505050565b5f808215610c1e5750600160f81b610c21565b505f5b5f80516020610f2a8339815191525460405163f77f3f1d60e01b81525f80516020610f4a833981519152916001600160a01b03169063f77f3f1d90610c6e90899089908790600401610f09565b6020604051808303815f875af1158015610c8a573d5f803e3d5ffd5b505050506040513d601f19601f82011682018060405250810190610cae9190610e81565b9695505050505050565b5f61095582610cc7575f610cca565b60015b60ff165f610a04565b5f808215610ce65750600160f81b610ce9565b505f5b5f80516020610f2a8339815191525460405163d99882d560e01b81525f80516020610f4a833981519152916001600160a01b03169063d99882d590610c6e90899089908790600401610f09565b5f808215610d495750600160f81b610d4c565b505f5b5f80516020610f2a833981519152546040516363a2db2960e01b81525f80516020610f4a833981519152916001600160a01b0316906363a2db2990610c6e90899089908790600401610f09565b5f60208284031215610da9575f80fd5b5035919050565b5f805f8060608587031215610dc3575f80fd5b8435935060208501359250604085013567ffffffffffffffff80821115610de8575f80fd5b818701915087601f830112610dfb575f80fd5b813581811115610e09575f80fd5b886020828501011115610e1a575f80fd5b95989497505060200194505050565b5f60018201610e4657634e487b7160e01b5f52601160045260245ffd5b5060010190565b60548110610e6957634e487b7160e01b5f52602160045260245ffd5b9052565b828152604081016102266020830184610e4d565b5f60208284031215610e91575f80fd5b5051919050565b8481525f602060018060a01b03861660208401526080604084015284518060808501525f5b81811015610ed95786810183015185820160a001528201610ebd565b505f60a0828601015260a0601f19601f83011685010192505050610f006060830184610e4d565b95945050505050565b92835260208301919091526001600160f81b03191660408201526060019056fe9e7b61f58c47dc699ac88507c4f5bb9f121c03808c5676a8078fe583e46497019e7b61f58c47dc699ac88507c4f5bb9f121c03808c5676a8078fe583e4649700a2646970667358221220d812b8e1a0626cdd6bfba63cd6d4c2f7066b50d5e34527523626a41d6c3a69f264736f6c63430008180033",
  "linkReferences": {},
  "deployedLinkReferences": {}
}