{
  "_format": "hh-sol-artifact-1",
  "contractName": "RockPaperScissors",
  "sourceName": "contracts/RockPaperScissors.sol",
  "abi": [
    {
      "inputs": [],
      "stateMutability": "nonpayable",
      "type": "constructor"
    },
    {
      "inputs": [],
      "name": "ZamaProtocolUnsupported",
      "type": "error"
    },
    {
      "anonymous": false,
      "inputs": [
        {
          "indexed": true,
          "internalType": "uint256",
          "name": "gameId",
          "type": "uint256"
        },
        {
          "indexed": true,
          "internalType": "address",
          "name": "requestor",
          "type": "address"
        }
      ],
      "name": "DecryptionReady",
      "type": "event"
    },
    {
      "anonymous": false,
      "inputs": [
        {
          "indexed": true,
          "internalType": "uint256",
          "name": "gameId",
          "type": "uint256"
        },
        {
          "indexed": true,
          "internalType": "address",
          "name": "player1",
          "type": "address"
        }
      ],
      "name": "GameCreated",
      "type": "event"
    },
    {
      "anonymous": false,
      "inputs": [
        {
          "indexed": true,
          "internalType": "uint256",
          "name": "gameId",
          "type": "uint256"
        },
        {
          "indexed": false,
          "internalType": "address",
          "name": "winner",
          "type": "address"
        },
        {
          "indexed": false,
          "internalType": "bool",
          "name": "isDraw",
          "type": "bool"
        }
      ],
      "name": "GameFinished",
      "type": "event"
    },
    {
      "anonymous": false,
      "inputs": [
        {
          "indexed": true,
          "internalType": "uint256",
          "name": "gameId",
          "type": "uint256"
        },
        {
          "indexed": true,
          "internalType": "address",
          "name": "player",
          "type": "address"
        },
        {
          "indexed": false,
          "internalType": "bool",
          "name": "isPlayer1",
          "type": "bool"
        }
      ],
      "name": "MoveMade",
      "type": "event"
    },
    {
      "anonymous": false,
      "inputs": [
        {
          "indexed": true,
          "internalType": "uint256",
          "name": "gameId",
          "type": "uint256"
        },
        {
          "indexed": true,
          "internalType": "address",
          "name": "player2",
          "type": "address"
        }
      ],
      "name": "PlayerJoined",
      "type": "event"
    },
    {
      "inputs": [],
      "name": "confidentialProtocolId",
      "outputs": [
        {
          "internalType": "uint256",
          "name": "",
          "type": "uint256"
        }
      ],
      "stateMutability": "view",
      "type": "function"
    },
    {
      "inputs": [],
      "name": "createGame",
      "outputs": [
        {
          "internalType": "uint256",
          "name": "",
          "type": "uint256"
        }
      ],
      "stateMutability": "nonpayable",
      "type": "function"
    },
    {
      "inputs": [],
      "name": "gameCounter",
      "outputs": [
        {
          "internalType": "uint256",
          "name": "",
          "type": "uint256"
        }
      ],
      "stateMutability": "view",
      "type": "function"
    },
    {
      "inputs": [
        {
          "internalType": "uint256",
          "name": "",
          "type": "uint256"
        }
      ],
      "name": "games",
      "outputs": [
        {
          "internalType": "address",
          "name": "player1",
          "type": "address"
        },
        {
          "internalType": "address",
          "name": "player2",
          "type": "address"
        },
        {
          "internalType": "euint8",
          "name": "encryptedMove1",
          "type": "bytes32"
        },
        {
          "internalType": "euint8",
          "name": "encryptedMove2",
          "type": "bytes32"
        },
        {
          "internalType": "bool",
          "name": "player1Committed",
          "type": "bool"
        },
        {
          "internalType": "bool",
          "name": "player2Committed",
          "type": "bool"
        },
        {
          "internalType": "enum RockPaperScissors.GameStatus",
          "name": "status",
          "type": "uint8"
        },
        {
          "internalType": "uint256",
          "name": "createdAt",
          "type": "uint256"
        },
        {
          "internalType": "ebool",
          "name": "isDrawEncrypted",
          "type": "bytes32"
        },
        {
          "internalType": "ebool",
          "name": "player1WinsEncrypted",
          "type": "bytes32"
        },
        {
          "internalType": "bool",
          "name": "isDraw",
          "type": "bool"
        },
        {
          "internalType": "bool",
          "name": "player1Wins",
          "type": "bool"
        },
        {
          "internalType": "bool",
          "name": "resultsDecrypted",
          "type": "bool"
        }
      ],
      "stateMutability": "view",
      "type": "function"
    },
    {
      "inputs": [
        {
          "internalType": "uint256",
          "name": "gameId",
          "type": "uint256"
        }
      ],
      "name": "joinGame",
      "outputs": [],
      "stateMutability": "nonpayable",
      "type": "function"
    },
    {
      "inputs": [
        {
          "internalType": "uint256",
          "name": "gameId",
          "type": "uint256"
        },
        {
          "internalType": "bytes32",
          "name": "encryptedMove",
          "type": "bytes32"
        },
        {
          "internalType": "bytes",
          "name": "inputProof",
          "type": "bytes"
        }
      ],
      "name": "makeMove",
      "outputs": [],
      "stateMutability": "nonpayable",
      "type": "function"
    }
  ],
  "bytecode": "0x6040608081523461020957610012610240565b504660010361012657610023610240565b5061002c61020d565b73ca2e8f1f656cd25c01f05d0b243ab1ecd4a8ffb6815273d82385dada1ae3e969447f20a3164f6213100e7560208201527377627828a55156b04ac0dc0eb30467f1a552bb03828201525b80517f9e7b61f58c47dc699ac88507c4f5bb9f121c03808c5676a8078fe583e464970080546001600160a01b03199081166001600160a01b039384161790915560208301517f9e7b61f58c47dc699ac88507c4f5bb9f121c03808c5676a8078fe583e464970180548316918416919091179055918301517f9e7b61f58c47dc699ac88507c4f5bb9f121c03808c5676a8078fe583e4649702805490931691161790555161091b908161025b8239f35b4662aa36a70361019057610138610240565b5061014161020d565b73f0ffdc93b7e186bc2f8cb3daa75d86d1930a433d81527392c920834ec8941d2c77d188936e1f7a6f49c127602082015273be0e383937d564d7ff0bc3b46c51f0bf8d5c311a82820152610077565b46617a69036101f9576101a1610240565b506101aa61020d565b7350157cffd6bbfa2dece204a89ec419c23ef5755d815273e3a9105a3a932253a70f126eb1e3b589c643dd24602082015273901f8942346f7ab3a01f6d7613119bca447bb03082820152610077565b516373cac13b60e01b8152600490fd5b5f80fd5b60405190606082016001600160401b0381118382101761022c57604052565b634e487b7160e01b5f52604160045260245ffd5b61024861020d565b905f82525f60208301525f604083015256fe608060409080825260049081361015610016575f80fd5b5f3560e01c908163117a5b901461060b575080632e0be39a146105ed5780637255d729146103915780638927b0301461036e5780638de50685146102235763efaa55a014610062575f80fd5b3461021f576020908160031936011261021f57803591825f525f8152835f2060018060a01b03808254169182156101e657600181019283549283166101a35733146101605784019384549360ff8560101c16600581101561014d5761010b5750506001600160a01b0319163390811790915562ff0000199091166201000017909155907f87969bc7faf902221a147b95ceba76e011c5efb0339a0a8ee7a2bb82d9cfbbd65f80a3005b875162461bcd60e51b815291820152601960248201527f47616d65206e6f7420696e2077616974696e6720737461746500000000000000604482015260649150fd5b602183634e487b7160e01b5f525260245ffd5b865162461bcd60e51b8152808601859052601c60248201527f43616e6e6f7420706c617920616761696e737420796f757273656c66000000006044820152606490fd5b875162461bcd60e51b8152808701869052601c60248201527f47616d6520616c7265616479206861732074776f20706c6179657273000000006044820152606490fd5b865162461bcd60e51b8152808601859052601360248201527211d85b5948191bd95cc81b9bdd08195e1a5cdd606a1b6044820152606490fd5b5f80fd5b503461021f57606036600319011261021f57803560443567ffffffffffffffff80821161021f573660238301121561021f578184013590811161021f573691016024011161021f575f81815260208190528390208054336001600160a01b039182161491821561035d575b50501561030e575f525f60205260ff81835f20015460101c1660058110156102fb576001036102b957005b6020606492519162461bcd60e51b8352820152601860248201527f47616d65206e6f7420616363657074696e67206d6f76657300000000000000006044820152fd5b602182634e487b7160e01b5f525260245ffd5b506020608492519162461bcd60e51b83528201526024808201527f4f6e6c7920706c61796572732063616e20706572666f726d20746869732061636044820152633a34b7b760e11b6064820152fd5b600191925001541633145f8061028e565b823461021f575f36600319011261021f5760209061038a6107c2565b9051908152f35b50903461021f575f36600319011261021f57600154905f1982146105da57600182016001556103be6107f1565b6103c66107f1565b936103cf610886565b946103d8610886565b8451906101a0820182811067ffffffffffffffff8211176105c75790879291875233825260208201985f8a528783019687526060830194855260808301945f865260a084015f815260c08501905f825260e08601924284526101008701948552610120870195865261014087019a5f8c5261016088019e8f5f90526101808901995f8b525f525f6020528d5f2098600160a01b6001900380915116906bffffffffffffffffffffffff60a01b91828c5416178b5560018b0192511690825416179055516002880155516003870155888601975115156104c390899060ff801983541691151516179055565b51875461ff00191690151560081b61ff0016178755519660058810156105b4575061054c9360209b936105359360089389549962ff0000199a8b62ff0000809e60101b1691161790555160058401555160068301555160078201550196511515879060ff801983541691151516179055565b51855461ff00191690151560081b61ff0016178555565b5115159183549260101b169116179055815f525f83526105716002825f200154610729565b50815f525f83526105876003825f200154610729565b50519033817fc3e0f84839dc888c892a013d10c8f9d6dc05a21a879d0ce468ca558013e9121c5f80a38152f35b602190634e487b7160e01b5f525260245ffd5b604185634e487b7160e01b5f525260245ffd5b601183634e487b7160e01b5f525260245ffd5b823461021f575f36600319011261021f576020906001549051908152f35b9050823461021f57602036600319011261021f5782355f525f602052805f2060018060a01b03908181541691600182015416600282015493600383015494878401549560ff968791828260101c1693600588015495600689015497600860078b01549a01549a8d5260208d01528b015260608a0152818116151560808a015260081c16151560a088015260058110156106e0576101a0975060c087015260e08601526101008501526101208401528181161515610140840152818160081c16151561016084015260101c161515610180820152f35b602188634e487b7160e01b5f525260245ffd5b90601f8019910116810190811067ffffffffffffffff82111761071557604052565b634e487b7160e01b5f52604160045260245ffd5b80156107b4575b7f9e7b61f58c47dc699ac88507c4f5bb9f121c03808c5676a8078fe583e4649700546001600160a01b0316803b1561021f575f8091604460405180948193635ca4b5b160e11b83528760048401523060248401525af180156107a957610794575090565b67ffffffffffffffff81116107155760405290565b6040513d5f823e3d90fd5b506107bd6107f1565b610730565b466001036107cf57600190565b4662aa36a7036107df5761271190565b617a6946146107ec575f90565b5f1990565b7f9e7b61f58c47dc699ac88507c4f5bb9f121c03808c5676a8078fe583e464970154604051639cd07acb60e01b81525f60048201819052600260248301529091602091839160449183916001600160a01b03165af19081156107a9575f91610857575090565b90506020813d60201161087e575b81610872602093836106f3565b8101031261021f575190565b3d9150610865565b5f602060018060a01b037f9e7b61f58c47dc699ac88507c4f5bb9f121c03808c5676a8078fe583e46497015416604460405180948193639cd07acb60e01b83528160048401528160248401525af19081156107a9575f9161085757509056fea26469706673582212200195702d3b80a73d897747038f762d1c0da1c129cc48b14c257a585f08f46fbb64736f6c63430008180033",
  "linkReferences": {},
  "deployedLinkReferences": {}
}