{
  "_format": "hh-sol-artifact-1",
  "contractName": "RockPaperScissors",
  "sourceName": "contracts/RockPaperScissors.sol",
  "abi": [
    {
      "anonymous": false,
      "inputs": [
        {
          "indexed": true,
          "internalType": "uint256",
          "name": "gameId",
          "type": "uint256"
        },
        {
          "indexed": true,
          "internalType": "address",
          "name": "player1",
          "type": "address"
        }
      ],
      "name": "GameCreated",
      "type": "event"
    },
    {
      "anonymous": false,
      "inputs": [
        {
          "indexed": true,
          "internalType": "uint256",
          "name": "gameId",
          "type": "uint256"
        },
        {
          "indexed": false,
          "internalType": "address",
          "name": "winner",
          "type": "address"
        },
        {
          "indexed": false,
          "internalType": "bool",
          "name": "isDraw",
          "type": "bool"
        }
      ],
      "name": "GameFinished",
      "type": "event"
    },
    {
      "anonymous": false,
      "inputs": [
        {
          "indexed": true,
          "internalType": "uint256",
          "name": "gameId",
          "type": "uint256"
        },
        {
          "indexed": true,
          "internalType": "address",
          "name": "player",
          "type": "address"
        },
        {
          "indexed": false,
          "internalType": "bool",
          "name": "isPlayer1",
          "type": "bool"
        }
      ],
      "name": "MoveMade",
      "type": "event"
    },
    {
      "inputs": [],
      "name": "createGame",
      "outputs": [
        {
          "internalType": "uint256",
          "name": "",
          "type": "uint256"
        }
      ],
      "stateMutability": "nonpayable",
      "type": "function"
    },
    {
      "inputs": [
        {
          "internalType": "uint256",
          "name": "gameId",
          "type": "uint256"
        }
      ],
      "name": "determineWinner",
      "outputs": [
        {
          "internalType": "address",
          "name": "",
          "type": "address"
        }
      ],
      "stateMutability": "nonpayable",
      "type": "function"
    },
    {
      "inputs": [],
      "name": "gameCounter",
      "outputs": [
        {
          "internalType": "uint256",
          "name": "",
          "type": "uint256"
        }
      ],
      "stateMutability": "view",
      "type": "function"
    },
    {
      "inputs": [
        {
          "internalType": "uint256",
          "name": "",
          "type": "uint256"
        }
      ],
      "name": "games",
      "outputs": [
        {
          "internalType": "address",
          "name": "player1",
          "type": "address"
        },
        {
          "internalType": "address",
          "name": "player2",
          "type": "address"
        },
        {
          "internalType": "euint8",
          "name": "encryptedMove1",
          "type": "bytes32"
        },
        {
          "internalType": "euint8",
          "name": "encryptedMove2",
          "type": "bytes32"
        },
        {
          "internalType": "bool",
          "name": "player1Committed",
          "type": "bool"
        },
        {
          "internalType": "bool",
          "name": "player2Committed",
          "type": "bool"
        },
        {
          "internalType": "bool",
          "name": "gameFinished",
          "type": "bool"
        },
        {
          "internalType": "uint256",
          "name": "createdAt",
          "type": "uint256"
        },
        {
          "components": [
            {
              "internalType": "ebool",
              "name": "isDraw",
              "type": "bytes32"
            },
            {
              "internalType": "ebool",
              "name": "player1Wins",
              "type": "bytes32"
            },
            {
              "internalType": "bool",
              "name": "resultsComputed",
              "type": "bool"
            }
          ],
          "internalType": "struct RockPaperScissors.EncryptedResult",
          "name": "encryptedResults",
          "type": "tuple"
        }
      ],
      "stateMutability": "view",
      "type": "function"
    },
    {
      "inputs": [
        {
          "internalType": "uint256",
          "name": "gameId",
          "type": "uint256"
        }
      ],
      "name": "getEncryptedResult",
      "outputs": [
        {
          "internalType": "ebool",
          "name": "",
          "type": "bytes32"
        },
        {
          "internalType": "ebool",
          "name": "",
          "type": "bytes32"
        }
      ],
      "stateMutability": "nonpayable",
      "type": "function"
    },
    {
      "inputs": [
        {
          "internalType": "uint256",
          "name": "gameId",
          "type": "uint256"
        }
      ],
      "name": "getGame",
      "outputs": [
        {
          "internalType": "address",
          "name": "player1",
          "type": "address"
        },
        {
          "internalType": "address",
          "name": "player2",
          "type": "address"
        },
        {
          "internalType": "bool",
          "name": "player1Committed",
          "type": "bool"
        },
        {
          "internalType": "bool",
          "name": "player2Committed",
          "type": "bool"
        },
        {
          "internalType": "bool",
          "name": "gameFinished",
          "type": "bool"
        }
      ],
      "stateMutability": "view",
      "type": "function"
    },
    {
      "inputs": [
        {
          "internalType": "uint256",
          "name": "gameId",
          "type": "uint256"
        }
      ],
      "name": "getMyMove",
      "outputs": [
        {
          "internalType": "euint8",
          "name": "",
          "type": "bytes32"
        }
      ],
      "stateMutability": "nonpayable",
      "type": "function"
    },
    {
      "inputs": [
        {
          "internalType": "uint256",
          "name": "gameId",
          "type": "uint256"
        }
      ],
      "name": "isGameReady",
      "outputs": [
        {
          "internalType": "bool",
          "name": "",
          "type": "bool"
        }
      ],
      "stateMutability": "view",
      "type": "function"
    },
    {
      "inputs": [
        {
          "internalType": "uint256",
          "name": "gameId",
          "type": "uint256"
        }
      ],
      "name": "joinGame",
      "outputs": [],
      "stateMutability": "nonpayable",
      "type": "function"
    },
    {
      "inputs": [
        {
          "internalType": "uint256",
          "name": "gameId",
          "type": "uint256"
        },
        {
          "internalType": "externalEuint8",
          "name": "encryptedMove",
          "type": "bytes32"
        },
        {
          "internalType": "bytes",
          "name": "inputProof",
          "type": "bytes"
        }
      ],
      "name": "makeMove",
      "outputs": [],
      "stateMutability": "nonpayable",
      "type": "function"
    },
    {
      "inputs": [],
      "name": "protocolId",
      "outputs": [
        {
          "internalType": "uint256",
          "name": "",
          "type": "uint256"
        }
      ],
      "stateMutability": "pure",
      "type": "function"
    }
  ],
  "bytecode": "0x608060405234801561000f575f80fd5b5061018a6100ae604080516080810182525f808252602082018190529181018290526060810191909152506040805160808101825273687820221192c5b662b25367f70076a37bc79b6c815273848b0066793bcc60346da1f49049357399b8d595602082015273a02cda4ca3a71d7c46997716f4283aa851c2881291810191909152731364cbbf2cdf5032c47d8226a6f6fbd2afcdacac606082015290565b80517f9e7b61f58c47dc699ac88507c4f5bb9f121c03808c5676a8078fe583e464970080546001600160a01b03199081166001600160a01b039384161790915560208301517f9e7b61f58c47dc699ac88507c4f5bb9f121c03808c5676a8078fe583e46497018054831691841691909117905560408301517f9e7b61f58c47dc699ac88507c4f5bb9f121c03808c5676a8078fe583e46497028054831691841691909117905560608301517f9e7b61f58c47dc699ac88507c4f5bb9f121c03808c5676a8078fe583e46497038054909216921691909117905550565b611265806101975f395ff3fe608060405234801561000f575f80fd5b50600436106100a6575f3560e01c806395fde9d21161006e57806395fde9d214610209578063a2f77bcc14610231578063c1715bff1461027f578063da1f12ab14610292578063efaa55a01461029a578063efe43338146102ad575f80fd5b8063117a5b90146100aa5780632b08b6de146101b25780632e0be39a146101d55780637255d729146101ec5780638de50685146101f4575b5f80fd5b61013f6100b836600461105f565b5f602081815291815260409081902080546001820154600283015460038401546004850154600586015487516060810189526006880154815260078801549981019990995260089096015460ff9081161515978901979097526001600160a01b03948516979490931695919490938284169361010081048416936201000090910416919089565b604080516001600160a01b039a8b168152999098166020808b0191909152898901979097526060890195909552921515608088015290151560a0870152151560c086015260e085015280516101008501529081015161012084015201511515610140820152610160015b60405180910390f35b6101c56101c036600461105f565b6102d8565b60405190151581526020016101a9565b6101de60015481565b6040519081526020016101a9565b6101de610309565b610207610202366004611076565b6104b2565b005b61021c61021736600461105f565b610767565b604080519283526020830191909152016101a9565b61024461023f36600461105f565b610800565b604080516001600160a01b0396871681529590941660208601529115159284019290925290151560608301521515608082015260a0016101a9565b6101de61028d36600461105f565b6108a2565b6127116101de565b6102076102a836600461105f565b61095e565b6102c06102bb36600461105f565b610a84565b6040516001600160a01b0390911681526020016101a9565b5f818152602081905260408120600481015460ff16801561030257506004810154610100900460ff165b9392505050565b600180545f918291908261031c836110ef565b919050559050604051806101200160405280336001600160a01b031681526020015f6001600160a01b031681526020016103555f610c0c565b81526020016103635f610c0c565b81526020015f151581526020015f151581526020015f15158152602001428152602001604051806060016040528061039a5f610c21565b81526020016103a85f610c21565b81525f6020918201819052919092528381528082526040808220845181546001600160a01b03199081166001600160a01b0392831617835586860151600184018054909216921691909117905584820151600282015560608501516003820155608085015160048201805460a088015160c089015161ffff1990921693151561ff0019169390931761010093151584021762ff00001916620100009115159190910217905560e086015160058301559094015180516006860155928301516007850155918201516008909301805460ff19169315159390931790925551339183917fc3e0f84839dc888c892a013d10c8f9d6dc05a21a879d0ce468ca558013e9121c9190a3919050565b5f848152602081905260409020600481015462010000900460ff16156105175760405162461bcd60e51b815260206004820152601560248201527411d85b5948185b1c9958591e48199a5b9a5cda1959605a1b60448201526064015b60405180910390fd5b80546001600160a01b031633148061053b575060018101546001600160a01b031633145b6105835760405162461bcd60e51b81526020600482015260196024820152784e6f74206120706c6179657220696e20746869732067616d6560381b604482015260640161050e565b5f6105c38585858080601f0160208091040260200160405190810160405280939291908181526020018383808284375f92019190915250610c3c92505050565b82549091506001600160a01b0316330361068057600482015460ff161561062c5760405162461bcd60e51b815260206004820152601a60248201527f506c61796572203120616c726561647920636f6d6d6974746564000000000000604482015260640161050e565b6002820181905560048201805460ff19166001908117909155604051908152339087907ec61e485e1d71e85a7fd0ed66df00e8ae91c7cb6c64f9ed157728bb2088246c9060200160405180910390a3610729565b6004820154610100900460ff16156106da5760405162461bcd60e51b815260206004820152601a60248201527f506c61796572203220616c726561647920636f6d6d6974746564000000000000604482015260640161050e565b6003820181905560048201805461ff0019166101001790556040515f8152339087907ec61e485e1d71e85a7fd0ed66df00e8ae91c7cb6c64f9ed157728bb2088246c9060200160405180910390a35b600482015460ff16801561074657506004820154610100900460ff165b1561075f5760048201805462ff00001916620100001790555b505050505050565b5f818152602081905260408120600881015482919060ff166107cb5760405162461bcd60e51b815260206004820152601860248201527f526573756c7473206e6f7420636f6d7075746564207965740000000000000000604482015260640161050e565b60068101546107da9033610c49565b5060078101546107ea9033610c49565b5060068101546007909101549094909350915050565b5f818152602081905260408120805482918291829182916001600160a01b03166108625760405162461bcd60e51b815260206004820152601360248201527211d85b5948191bd95cc81b9bdd08195e1a5cdd606a1b604482015260640161050e565b805460018201546004909201546001600160a01b039182169991909216975060ff8083169750610100830481169650620100009092049091169350915050565b5f81815260208190526040812080546001600160a01b03163314806108d3575060018101546001600160a01b031633145b61091b5760405162461bcd60e51b81526020600482015260196024820152784e6f74206120706c6179657220696e20746869732067616d6560381b604482015260640161050e565b80546001600160a01b031633036109455761093a816002015433610c49565b506002015492915050565b610953816003015433610c49565b506003015492915050565b5f81815260208190526040902080546001600160a01b03166109b85760405162461bcd60e51b815260206004820152601360248201527211d85b5948191bd95cc81b9bdd08195e1a5cdd606a1b604482015260640161050e565b60018101546001600160a01b031615610a135760405162461bcd60e51b815260206004820152601c60248201527f47616d6520616c7265616479206861732074776f20706c617965727300000000604482015260640161050e565b8054336001600160a01b0390911603610a6e5760405162461bcd60e51b815260206004820152601c60248201527f43616e6e6f7420706c617920616761696e737420796f757273656c6600000000604482015260640161050e565b60010180546001600160a01b0319163317905550565b5f818152602081905260408120600481015462010000900460ff16610ae35760405162461bcd60e51b815260206004820152601560248201527411d85b59481b9bdd08199a5b9a5cda1959081e595d605a1b604482015260640161050e565b600281015460038201545f610af88383610c5b565b90505f610b0d84610b085f610c0c565b610c5b565b90505f610b1e84610b086002610c0c565b90505f610b2b8383610c89565b90505f610b3c87610b086001610c0c565b90505f610b4c87610b085f610c0c565b90505f610b598383610c89565b90505f610b6a8a610b086002610c0c565b90505f610b7b8a610b086001610c0c565b90505f610b888383610c89565b90505f610b9e610b988987610cb7565b83610cb7565b905060405180606001604052808c8152602001828152602001600115158152508e6006015f820151815f0155602082015181600101556040820151816002015f6101000a81548160ff0219169083151502179055509050505f9e505050505050505050505050505050919050565b5f610c1b8260ff166002610ce5565b92915050565b5f610c1b82610c30575f610c33565b60015b60ff165f610ce5565b5f61030283836002610d7c565b5f610c548383610e76565b5090919050565b5f82610c6d57610c6a5f610c0c565b92505b81610c7e57610c7b5f610c0c565b91505b61030283835f610eec565b5f82610c9b57610c985f610c21565b92505b81610cac57610ca95f610c21565b91505b61030283835f610f99565b5f82610cc957610cc65f610c21565b92505b81610cda57610cd75f610c21565b91505b61030283835f610ffc565b5f805160206111f083398151915254604051639cd07acb60e01b81525f915f80516020611210833981519152916001600160a01b0390911690639cd07acb90610d349087908790600401611133565b6020604051808303815f875af1158015610d50573d5f803e3d5ffd5b505050506040513d601f19601f82011682018060405250810190610d749190611147565b949350505050565b5f805160206111f08339815191525460405163196d0b9b60e01b81525f915f80516020611210833981519152916001600160a01b039091169063196d0b9b90610dcf90889033908990899060040161115e565b6020604051808303815f875af1158015610deb573d5f803e3d5ffd5b505050506040513d601f19601f82011682018060405250810190610e0f9190611147565b8154604051630f8e573b60e21b8152600481018390523360248201529193506001600160a01b031690633e395cec906044015f604051808303815f87803b158015610e58575f80fd5b505af1158015610e6a573d5f803e3d5ffd5b50505050509392505050565b5f5f805160206112108339815191528054604051630f8e573b60e21b8152600481018690526001600160a01b038581166024830152929350911690633e395cec906044015f604051808303815f87803b158015610ed1575f80fd5b505af1158015610ee3573d5f803e3d5ffd5b50505050505050565b5f808215610eff5750600160f81b610f02565b505f5b5f805160206111f08339815191525460405163f77f3f1d60e01b81525f80516020611210833981519152916001600160a01b03169063f77f3f1d90610f4f908990899087906004016111cf565b6020604051808303815f875af1158015610f6b573d5f803e3d5ffd5b505050506040513d601f19601f82011682018060405250810190610f8f9190611147565b9695505050505050565b5f808215610fac5750600160f81b610faf565b505f5b5f805160206111f08339815191525460405163d99882d560e01b81525f80516020611210833981519152916001600160a01b03169063d99882d590610f4f908990899087906004016111cf565b5f80821561100f5750600160f81b611012565b505f5b5f805160206111f0833981519152546040516363a2db2960e01b81525f80516020611210833981519152916001600160a01b0316906363a2db2990610f4f908990899087906004016111cf565b5f6020828403121561106f575f80fd5b5035919050565b5f805f8060608587031215611089575f80fd5b8435935060208501359250604085013567ffffffffffffffff808211156110ae575f80fd5b818701915087601f8301126110c1575f80fd5b8135818111156110cf575f80fd5b8860208285010111156110e0575f80fd5b95989497505060200194505050565b5f6001820161110c57634e487b7160e01b5f52601160045260245ffd5b5060010190565b6054811061112f57634e487b7160e01b5f52602160045260245ffd5b9052565b828152604081016103026020830184611113565b5f60208284031215611157575f80fd5b5051919050565b8481525f602060018060a01b03861660208401526080604084015284518060808501525f5b8181101561119f5786810183015185820160a001528201611183565b505f60a0828601015260a0601f19601f830116850101925050506111c66060830184611113565b95945050505050565b92835260208301919091526001600160f81b03191660408201526060019056fe9e7b61f58c47dc699ac88507c4f5bb9f121c03808c5676a8078fe583e46497019e7b61f58c47dc699ac88507c4f5bb9f121c03808c5676a8078fe583e4649700a2646970667358221220c85e096043cd467d70ddd05f80b95159a2190d93a90760e00a597ad31b2b927f64736f6c63430008180033",
  "linkReferences": {},
  "deployedLinkReferences": {}
}